:040000004DEF00F0D0
:100008005A82D9CF03F0DACF04F00E0137B50FEFDB
:1000180000F012EF00F0010E13EF00F0000E58147C
:100028000009D8B41AEF00F01CEF00F038EF00F028
:1000380003EC09F00009D8A424EF00F026EF00F043
:100048002AEF00F00E012D95000E586E03EC09F012
:100058000009D8B432EF00F034EF00F038EF00F0C8
:100068007BEC08F00E01E46F0E0137A73EEF00F0BD
:1000780040EF00F047EF00F0E3CE05F00550BBEC91
:1000880008F0010E596E04C0DAFF03C0D9FF5A9276
:100098001100FEEF07F0000E126E000E116E40C048
:1000A80013F041C014F0E0EC06F020EE04F04050EC
:1000B800D9264150DA22DECF08F0DDCF09F040C062
:1000C800D9FF41C0DAFFDECF06F0DDCF07F01CEC28
:1000D80007F006C00DF007C00EF00F6A106A000E98
:1000E800EFEC04F00DC046F00EC047F00FC048F02A
:1000F80010C049F020EE02F04050D9264150DA22D3
:10010800DECF08F0DDCF09F040C0D9FF41C0DAFFEB
:10011800DECF06F0DDCF07F01CEC07F006C00DF0CF
:1001280007C00EF00F6A106A000EEFEC04F00DC065
:100138004AF00EC04BF00FC04CF010C04DF020EE4E
:1001480002F04050D9264150DA22DECF08F0DDCF48
:1001580009F020EE04F04050D9264150DA22DECFD3
:1001680006F0DDCF07F01CEC07F006C00DF007C065
:100178000EF00F6A106A000EEFEC04F00DC04EF09E
:100188000EC04FF00FC050F010C051F0000E346E8A
:10019800000E356EA00E366E420E376E46C038F031
:1001A80047C039F048C03AF049C03BF05EEC06F071
:1001B800D8B0E1EF00F0E3EF00F077EF01F046C0D0
:1001C80034F047C035F048C036F049C037F0000E6B
:1001D800386E000E396EFA0E3A6E420E3B6E5EECC9
:1001E80006F0D8B0FAEF00F0FCEF00F077EF01F07E
:1001F800000E346E000E356EA00E366E420E376E4F
:100208004AC038F04BC039F04CC03AF04DC03BF012
:100218005EEC06F0D8B013EF01F015EF01F077EFC0
:1002280001F04AC034F04BC035F04CC036F04DC038
:1002380037F0000E386E000E396EFA0E3A6E420E26
:100248003B6E5EEC06F0D8B02CEF01F02EEF01F01B
:1002580077EF01F0000E346E000E356EA00E366E8C
:10026800420E376E4EC038F04FC039F050C03AF0E9
:1002780051C03BF05EEC06F0D8B045EF01F047EF17
:1002880001F077EF01F04EC034F04FC035F050C0A8
:1002980036F051C037F0000E386E000E396EFA0E87
:1002A8003A6E420E3B6E5EEC06F0D8B05EEF01F09F
:1002B80060EF01F077EF01F020EE04F04050D9260E
:1002C8004150DA22A10EDE5C0F0EDE58D8A06FEF87
:1002D80001F071EF01F074EF01F0070ED9EF02F0B1
:1002E800020ED9EF02F0CD0E1F6ECC0E206ECC0E92
:1002F800216E3F0E226E20EE04F04050D926415068
:10030800DA22DECF42F0DDCF43F042C00DF043C029
:100318000EF00F6A106A000EEFEC04F00DC01BF02F
:100328000EC01CF00FC01DF010C01EF0DAEC02F079
:100338001BC034F01CC035F01DC036F01EC037F0AD
:1003480040C0D9FF41C0DAFFDECF44F0DDCF45F031
:1003580044C00DF045C00EF00F6A106A000EEFECB5
:1003680004F00DC038F00EC039F00FC03AF010C0DC
:100378003BF05EEC06F0D8B0C4EF01F0C6EF01F038
:10038800BCEF02F0CD0E1F6ECC0E206ECC0E216E8F
:100398003F0E226E20EE02F04050D9264150DA225C
:1003A800DECF42F0DDCF43F042C00DF043C00EF087
:1003B8000F6A106A000EEFEC04F00DC01BF00EC0BF
:1003C8001CF00FC01DF010C01EF0DAEC02F01BC0CC
:1003D80034F01CC035F01DC036F01EC037F040C0E8
:1003E800D9FF41C0DAFFDECF44F0DDCF45F044C08D
:1003F8000DF045C00EF00F6A106A000EEFEC04F025
:100408000DC038F00EC039F00FC03AF010C03BF004
:100418005EEC06F0D8B013EF02F015EF02F0BCEF77
:1004280002F0000E126E020E116E40C013F041C0B1
:1004380014F0E0EC06F020EE04F04050D9264150CC
:10044800DA2240C0E1FF41C0E2FFE6CF44F0E5CF49
:1004580045F0D89044364536DE50445CDE50455869
:10046800D8B039EF02F03BEF02F03EEF02F0040E95
:10047800D9EF02F0000E126E030E116E40C013F099
:1004880041C014F0E0EC06F0330E1F6E330E206E00
:10049800730E216E400E226E40C0D9FF41C0DAFFB4
:1004A800DECF42F0DDCF43F042C00DF043C00EF086
:1004B8000F6A106A000EEFEC04F00DC01BF00EC0BE
:1004C8001CF00FC01DF010C01EF0DAEC02F01BC0CB
:1004D80034F01CC035F01DC036F01EC037F020EED9
:1004E80002F04050D9264150DA22DECF44F0DDCF69
:1004F80045F044C00DF045C00EF00F6A106A000EBA
:10050800EFEC04F00DC038F00EC039F00FC03AF02F
:1005180010C03BF05EEC06F0D8B095EF02F097EF14
:1005280002F09AEF02F0050ED9EF02F020EE02F089
:100538004050D9264150DA2240C0E1FF41C0E2FFD5
:10054800E6CF44F0E5CF45F0D89044364536DE5046
:10055800445CDE504558D8B0B4EF02F0B6EF02F074
:10056800B9EF02F0060ED9EF02F0010ED9EF02F052
:10057800000E126E010E116E40C013F041C014F04F
:10058800E0EC06F040C0D9FF41C0DAFFE90EDE5CBE
:10059800030EDE58D8A0D3EF02F0D5EF02F0D8EF63
:1005A80002F0000ED9EF02F0030E12001E50800B6D
:1005B800276E1E501E242D6E1DAEE5EF02F0E7EFEC
:1005C80002F0E8EF02F02D802D50D8B4EEEF02F0E3
:1005D800F0EF02F003EF03F02D28D8A4F6EF02F0B5
:1005E800F8EF02F000EF03F0000E1B6E000E1C6E19
:1005F800000E1D6E000E1E6E1D8E0BEF03F0000E1A
:100608001B6E000E1C6E000E1D6E000E1E6E22501C
:10061800800B271A225022242C6E21AE16EF03F0ED
:1006280018EF03F019EF03F02C802C50D8B41FEF0B
:1006380003F021EF03F034EF03F02C28D8A427EFC0
:1006480003F029EF03F031EF03F0000E1F6E000EE8
:10065800206E000E216E000E226E218E3CEF03F0FC
:10066800000E1F6E000E206E000E216E000E226E10
:100678002C50D8B442EF03F044EF03F04CEF03F0F2
:100688002D50D8A44AEF03F04CEF03F056EF03F0D7
:10069800000E1B6E000E1C6E000E1D6E000E1E6EF0
:1006A800EEEF04F021501B02F3CF32F0F4CF33F019
:1006B8003250286E296A2A6A2B6A33502E6E2F6AA6
:1006C800306A316A20501C02F3CF32F0F4CF33F095
:1006D80032502826000E29222A222B2233502E2679
:1006E800000E2F22302231221F501D02F3CF32F08C
:1006F800F4CF33F032502826000E29222A222B224A
:1007080033502E26000E2F22302231222AC02BF001
:1007180029C02AF028C029F0286A1F501C02F3CFEC
:1007280032F0F4CF33F03250282633502922000E0D
:100738002A22000E2B2220501B02F3CF32F0F4CFD6
:1007480033F03250282633502922000E2A22000E78
:100758002B222AC02BF029C02AF028C029F0286AA9
:100768001F501B02F3CF32F0F4CF33F0325028265B
:1007780033502922000E2A22000E2B2221501C025F
:10078800F3CF32F0F4CF33F032502E2633502F22ED
:10079800000E3022000E312220501D02F3CF32F01D
:1007A800F4CF33F032502E2633502F22000E302251
:1007B800000E312221501D02F3CF32F0F4CF33F076
:1007C8003250236E3350246E256A266A25C026F0DF
:1007D80024C025F023C024F0236A23502E26245059
:1007E8002F22255030222650312228C023F029C03C
:1007F80024F02AC025F02BC026F0190E09EF04F0CA
:10080800D8902632253224322332E82E04EF04F021
:1008180023502E2624502F222550302226503122B4
:100828002AC02BF029C02AF028C029F0286A2C50A9
:100838002DC023F0246A2326000E2422820E2324AE
:10084800326EFF0E2420336E3FEF04F0D8902E3620
:100858002F36303631362BAE34EF04F036EF04F055
:1008680037EF04F02E80D890283629362A362B36D2
:100878003206D8A0330630AE44EF04F046EF04F059
:100888002AEF04F0000E2C6E2BAE4DEF04F04FEF64
:1008980004F073EF04F0FF0E2814236EFF0E2914E2
:1008A800246EFF0E2A14256E7F0E2B14266E2350FD
:1008B800241025102610D8B464EF04F066EF04F075
:1008C8006AEF04F0010E2C6E73EF04F02EA06FEFA8
:1008D80004F071EF04F073EF04F066EF04F02C50AD
:1008E800D8B479EF04F07BEF04F09FEF04F0010E29
:1008F8002E26000E2F223022312231A086EF04F05E
:1009080088EF04F09FEF04F02EC023F02FC024F0EE
:1009180030C025F031C026F0263426322532243264
:10092800233223C02EF024C02FF025C030F026C07B
:1009380031F0324A332A33BEAAEF04F0335008E1CB
:100948003228D8A0AAEF04F0ACEF04F0B6EF04F018
:10095800000E2E6E000E2F6E800E306E7F0E316EE2
:10096800E4EF04F033BEC3EF04F0335006E1320481
:10097800D8B0C1EF04F0C3EF04F0CFEF04F0000EDD
:100988002E6E000E2F6E000E306E000E316E000EB1
:10099800276EE4EF04F032C02DF0FF0E2E16FF0E86
:1009A8002F167F0E3016000E31162DA0DEEF04F044
:1009B800E0EF04F0E1EF04F0308ED8902D30316E86
:1009C800275031122EC01BF02FC01CF030C01DF074
:1009D80031C01EF01200156E1550D8B4F6EF04F0B1
:1009E800F8EF04F01AEF05F010BEFFEF04F0FDEF8A
:1009F80004F01AEF05F00DC011F00EC012F00FC090
:100A080013F010C014F0111E121E131E141E112A0A
:100A1800000E12221322142211C017F012C018F06F
:100A280013C019F014C01AF022EF05F00DC017F02A
:100A38000EC018F00FC019F010C01AF00D500E10AB
:100A48000F101010D8A42BEF05F02DEF05F037EF9D
:100A580005F0000E0D6E000E0E6E000E0F6E000EED
:100A6800106EC8EF05F0960E166E41EF05F0162AC7
:100A7800D8901A32193218321732000E1714116E24
:100A8800000E1814126E000E1914136EFE0E1A14AE
:100A9800146E1150121013101410D8A456EF05F04C
:100AA80058EF05F03BEF05F066EF05F0162A010E4A
:100AB8001726000E182219221A22D8901A32193233
:100AC80018321732000E1714116E000E1814126E19
:100AD800000E1914136EFF0E1A14146E1150121012
:100AE80013101410D8A47BEF05F07DEF05F05AEF32
:100AF80005F085EF05F01606D89017361836193622
:100B08001A3619BE8AEF05F08CEF05F094EF05F060
:100B1800020E166092EF05F094EF05F07FEF05F0F6
:100B280016B099EF05F09BEF05F09CEF05F0199EC4
:100B3800D890163216C011F0126A136A146A11C0DE
:100B480014F0136A126A116A11501712125018120F
:100B58001350191214501A121550D8B4B6EF05F0E4
:100B6800B8EF05F0C0EF05F010BEBFEF05F0BDEF20
:100B780005F0C0EF05F01A8E17C00DF018C00EF082
:100B880019C00FF01AC010F01200F4EC08F00FECC6
:100B980009F061EC08F017EC09F0BDC0B2F0BEC076
:100BA800B3F0BFC0B4F0000E56EC07F0B60E406EBE
:100BB800000E416E4FEC00F00001BC6FBC51D8A490
:100BC800E8EF05F0EAEF05F0ECEF05F0770EB26F0D
:100BD800BC05D8A4F2EF05F0F4EF05F0F6EF05F048
:100BE800720EB26F020EBC19D8A4FDEF05F0FFEF2C
:100BF80005F001EF06F0620EB26F030EBC19D8A41F
:100C080008EF06F00AEF06F00CEF06F0670EB26F79
:100C1800040EBC19D8A413EF06F015EF06F017EF71
:100C280006F0700EB26F050EBC19D8A41EEF06F0C0
:100C380020EF06F022EF06F0790EB26F060EBC190F
:100C4800D8A429EF06F02BEF06F02DEF06F06F0E73
:100C5800B26F070EBC19D8A434EF06F036EF06F0D1
:100C680038EF06F06C0EB26FB20E076E000E086E0B
:100C780045EC08F0000E56EC07F0000E0001B56FC9
:100C88004A0E0001B16F0E0EB06F190EE82EFED796
:100C9800B02FFCD7B12FFAD70001B52B020EB565DE
:100CA80058EF06F05AEF06F044EF06F0D7EF05F0DC
:100CB8004DEF00F0000E34143C6E000E35143D6EFE
:100CC800800E36143E6E7F0E37143F6E3C503D103A
:100CD8003E103F10D8A473EF06F075EF06F07DEFD5
:100CE80006F0000E346E000E356E000E366E000EE5
:100CF800376E000E38143C6E000E39143D6E800EAF
:100D08003A143E6E7F0E3B143F6E3C503D103E1031
:100D18003F10D8A492EF06F094EF06F09CEF06F08F
:100D2800000E386E000E396E000E3A6E000E3B6EE5
:100D380037AEA1EF06F0A3EF06F0ACEF06F0346C87
:100D4800351ED8B0352A361ED8B0362A800E37560A
:100D58003BAEB1EF06F0B3EF06F0BCEF06F0386C2F
:100D6800391ED8B0392A3A1ED8B03A2A800E3B56D6
:100D7800000E341A000E351A000E361A800E371A75
:100D8800000E381A000E391A000E3A1A800E3B1A55
:100D98003850345C395035583A5036583B503758EB
:100DA800D8B0D9EF06F0DBEF06F0DEEF06F0D8900A
:100DB800DFEF06F0D8801200115056EC07F04A0E0B
:100DC800166E0E0E156E190EE82EFED7152EFCD7D0
:100DD800162EFAD700F011041210D8A4F6EF06F078
:100DE800F8EF06F0F9EF06F07E8E86EC07F013C0F8
:100DF800D9FF14C0DAFF0AC0DEFF0BC0DDFFD6EC56
:100E080007F020EE04F01350D9261450DA220AC055
:100E1800DEFF0BC0DDFFAEEC07F020EE02F0135052
:100E2800D9261450DA220AC0DEFF0BC0DDFF1200FB
:100E3800000E0B6E000E0A6E08500910D8B427EF8A
:100E480007F029EF07F051EF07F0010E0C6E31EFB4
:100E580007F0D890083609360C2A09AE36EF07F0A5
:100E680038EF07F02DEF07F0D8900A360B36085008
:100E7800065C09500758D8A044EF07F046EF07F082
:100E88004BEF07F00850065E0950075A0A80D890C1
:100E9800093208320C2E38EF07F00AC006F00BC0F2
:100EA80007F01200066E0650D8A45DEF07F05FEF5A
:100EB80007F062EF07F07F827E8E79880604D8A457
:100EC80068EF07F06AEF07F06DEF07F07F827E9E0C
:100ED8007998020E0618D8A474EF07F076EF07F099
:100EE80079EF07F07F927E8E7998030E0618D8A4C2
:100EF80080EF07F082EF07F085EF07F07F927E9E84
:100F0800798812002EEC09F0520E1EEC09F0B60E8C
:100F18001EEC09F024EC09F0530E1EEC09F0010E4A
:100F280024EC08F00C6E0C500F6E106A000E24ECC6
:100F380008F00C6E0C500E6E0D6A0F500D100F6EEF
:100F480010500E10106E29EC09F00FC00AF010C0F6
:100F58000BF012002EEC09F0520E1EEC09F0B80E40
:100F68001EEC09F024EC09F0530E1EEC09F0010EFA
:100F780024EC08F00C6E0C500F6E106A000E24EC76
:100F880008F00C6E0C500E6E0D6A0F500D100F6E9F
:100F980010500E10106E29EC09F00FC00AF010C0A6
:100FA8000BF012002EEC09F0520E1EEC09F0BA0EEE
:100FB8001EEC09F024EC09F0530E1EEC09F0010EAA
:100FC80024EC08F00C6E0C500F6E106A000E24EC26
:100FD80008F00C6E0C500E6E0D6A0F500D100F6E4F
:100FE80010500E10106E29EC09F00FC00AF010C056
:100FF8000BF01200660EF66E120EF76E000EF86E0B
:101008000900F5CFBDF00900F5CFBEF00900F5CF16
:10101800BFF001EE00F0640EEE6AE806FDE100EEB6
:1010280060F0500EEE6AE806FDE100EE52F0080EA0
:10103800EE6AE806FDE15A905A920001C9EF05F000
:10104800086ED0EC08F00E01DA87D0EC08F0D5CEA7
:1010580009F0D0EC08F00850D8B435EF08F039EFB3
:1010680008F0076A072A3AEF08F0076A073A0746BE
:101078000E01DA510718DF0B0718DA6FDA89095001
:10108800120050EF08F007C0D9FF08C0DAFFDF50A0
:10109800A6EC08F0074A082A07C0D9FF08C0DAFFFB
:1010A800DF50D8A45AEF08F05CEF08F047EF08F0DB
:1010B800010E586E0E012D85120091EC08F0010EFC
:1010C800086E000EE4EC08F03F0E0A6E550EE82E8E
:1010D800FED70A2EFCD700F0030E086E000EE4ECD3
:1010E80008F0D50E086E010EE4EC08F01200630E4D
:1010F800546481EF08F083EF08F085EF08F0000EE4
:10110800546E542A5404016E026A000E0124D96EEA
:10111800010E0220DA6EDF5012000E01D951F00BD9
:101128000809D96FD98B9F0ED66F848A848CA79BA8
:10113800A79D1D0E1D6F1E0E1C6F1C0E6F6F1B0EC4
:10114800706F1200066E630E5564ADEF08F0AFEFD6
:1011580008F0B1EF08F0000E556E000E5524D96E58
:10116800DA6A010EDA2206C0DFFF552A1200016E84
:10117800130E5764C2EF08F0C4EF08F0C6EF08F08A
:10118800000E576E9C0E5724D96EDA6A000EDA22CA
:1011980001C0DFFF572A12000E01D8B5D6EF08F0BC
:1011A800D8EF08F0D0EF08F0DACE06F01F0E0616DA
:1011B800D8A4E1EF08F0E3EF08F0D0EF08F0120050
:1011C800096E2EEC09F0520E1EEC09F00950800948
:1011D8001EEC09F008501EEC09F029EC09F0120089
:1011E800120E0E01626F110E156FE997E895330E16
:1011F800E56F000EE66FE789E88BE78F1200545021
:101208005518D8A40AEF09F00DEF09F0010E0EEFFA
:1012180009F0000E1200F28CF28A0E012D872D952E
:10122800298BF28E12008792869E81987F927E9EED
:1012380079981200076ED0EC08F007C0D5FE1200AE
:10124800D0EC08F00E01DA831200D0EC08F00E01A1
:10125800DA851200D0EC08F00E01DA811200300AAB
:011268000085
:020000040020DA
:10000000FF0FFF0FFF0FFF0FFF0FFF0FFF0FFF0F80
:020000040030CA
:0C000000AAFFFFFF9FFFFFFFFFFFFFFFB5
:00000001FF
