:0400000054EF00F0C9
:100008005182D9CF04F0DACF05F00E0137B50FEFE2
:1000180000F012EF00F0010E13EF00F0000E4E1486
:100028000009D8B41AEF00F01CEF00F03FEF00F021
:1000380004EC06F00E01E46F9CEC06F00009D8A46D
:1000480028EF00F02AEF00F02EEF00F00E012D95BA
:10005800000E4E6E7CAE33EF00F037EF00F0036A0F
:10006800032A38EF00F0036A033203327C50031886
:100078007F0B03187C6E0E0137A745EF00F047EFA2
:1000880000F04EEF00F0E3CE06F0065044EC06F028
:10009800010E4F6E05C0DAFF04C0D9FF519211005E
:1000A8006EEF05F0000E136E000E126E1CC014F0F9
:1000B8001DC015F050EC04F020EE04F01C50D926B9
:1000C8001D50DA22DECF09F0DDCF0AF01CC0D9FFBF
:1000D8001DC0DAFFDECF07F0DDCF08F08CEC04F0AE
:1000E80007C00EF008C00FF0106A116A000E2BEC62
:1000F80002F00EC024F00FC025F010C026F011C089
:1001080027F020EE02F01C50D9261D50DA22DECF4F
:1001180009F0DDCF0AF01CC0D9FF1DC0DAFFDECF21
:1001280007F0DDCF08F08CEC04F007C00EF008C033
:100138000FF0106A116A000E2BEC02F00EC028F0C6
:100148000FC029F010C02AF011C02BF020EE02F0E9
:100158001C50D9261D50DA22DECF09F0DDCF0AF077
:1001680020EE04F01C50D9261D50DA22DECF07F00D
:10017800DDCF08F08CEC04F007C00EF008C00FF0DB
:10018800106A116A000E2BEC02F00EC020F00FC0AE
:1001980021F010C022F011C023F0330E076E330E89
:1001A800086E330E096E3F0E0A6E24C00BF025C090
:1001B8000CF026C00DF027C00EF0CEEC03F0D8B03E
:1001C800E8EF00F0EAEF00F07EEF01F024C007F05E
:1001D80025C008F026C009F027C00AF0330E0B6EC0
:1001E800330E0C6EB30E0D6E3F0E0E6ECEEC03F09A
:1001F800D8B001EF01F003EF01F07EEF01F0330E0C
:10020800076E330E086E330E096E3F0E0A6E28C055
:100218000BF029C00CF02AC00DF02BC00EF0CEEC6C
:1002280003F0D8B01AEF01F01CEF01F07EEF01F0F7
:1002380028C007F029C008F02AC009F02BC00AF02E
:10024800330E0B6E330E0C6EB30E0D6E3F0E0E6E2C
:10025800CEEC03F0D8B033EF01F035EF01F07EEFCC
:1002680001F0330E076E330E086E330E096E3F0E23
:100278000A6E20C00BF021C00CF022C00DF023C084
:100288000EF0CEEC03F0D8B04CEF01F04EEF01F0D9
:100298007EEF01F020C007F021C008F022C009F06D
:1002A80023C00AF0330E0B6E330E0C6EB30E0D6EB8
:1002B8003F0E0E6ECEEC03F0D8B065EF01F067EF9D
:1002C80001F07EEF01F020EE04F01C50D9261D50FD
:1002D800DA22A10EDE5C0F0EDE58D8A076EF01F010
:1002E80078EF01F07BEF01F0070E2AEF02F0020E23
:1002F8002AEF02F0CD0E076ECC0E086ECC0E096EFA
:100308003F0E0A6E24C00BF025C00CF026C00DF07D
:1003180027C00EF0CEEC03F0D8B095EF01F097EFC0
:1003280001F00DEF02F0CD0E076ECC0E086ECC0E6C
:10033800096E3F0E0A6E28C00BF029C00CF02AC0C7
:100348000DF02BC00EF0CEEC03F0D8B0AEEF01F0FC
:10035800B0EF01F00DEF02F0000E136E020E126EF8
:100368001CC014F01DC015F050EC04F020EE04F091
:100378001C50D9261D50DA22E90EDE5C030EDE5829
:10038800D8A0C9EF01F0CBEF01F0CEEF01F0040ED9
:100398002AEF02F0000E136E030E126E1CC014F04A
:1003A8001DC015F050EC04F020EE02F01C50D926C8
:1003B8001D50DA227D0EDE5C150EDE58D8A0E7EF60
:1003C80001F0E9EF01F0ECEF01F0050E2AEF02F081
:1003D800000E136E030E126E1CC014F01DC015F033
:1003E80050EC04F020EE02F01C50D9261D50DA2201
:1003F800D10EDE5C070EDE58D8A005EF02F007EF3D
:1004080002F00AEF02F0060E2AEF02F0010E2AEFC0
:1004180002F0000E136E010E126E1CC014F01DC007
:1004280015F050EC04F01CC0D9FF1DC0DAFFE90E2E
:10043800DE5C030EDE58D8A024EF02F026EF02F0AF
:1004480029EF02F0000E2AEF02F0030E1200166EDA
:100458001650D8B432EF02F034EF02F056EF02F043
:1004680011BE3BEF02F039EF02F056EF02F00EC07A
:1004780012F00FC013F010C014F011C015F0121EC6
:10048800131E141E151E122A000E132214221522E2
:1004980012C018F013C019F014C01AF015C01BF0E0
:1004A8005EEF02F00EC018F00FC019F010C01AF07D
:1004B80011C01BF00E500F1010101110D8A467EFC8
:1004C80002F069EF02F073EF02F0000E0E6E000EFC
:1004D8000F6E000E106E000E116E04EF03F0960EF4
:1004E800176E7DEF02F0172AD8901B321A32193294
:1004F8001832000E1814126E000E1914136E000E26
:100508001A14146EFE0E1B14156E125013101410CC
:100518001510D8A492EF02F094EF02F077EF02F0F2
:10052800A2EF02F0172A010E1826000E19221A222D
:100538001B22D8901B321A3219321832000E1814A6
:10054800126E000E1914136E000E1A14146EFF0E9C
:100558001B14156E1250131014101510D8A4B7EFF1
:1005680002F0B9EF02F096EF02F0C1EF02F01706C1
:10057800D890183619361A361B361ABEC6EF02F04E
:10058800C8EF02F0D0EF02F0020E1760CEEF02F0D3
:10059800D0EF02F0BBEF02F017B0D5EF02F0D7EFC3
:1005A80002F0D8EF02F01A9ED890173217C012F056
:1005B800136A146A156A12C015F0146A136A126A6B
:1005C800125018121350191214501A1215501B12E7
:1005D8001650D8B4F2EF02F0F4EF02F0FCEF02F09C
:1005E80011BEFBEF02F0F9EF02F0FCEF02F01B8EF8
:1005F80018C00EF019C00FF01AC010F01BC011F08F
:1006080012007DEC06F08DEC06F0A8EC06F0EAECA2
:1006180005F0B0EC06F0000EC6EC04F09D0E1C6E62
:10062800000E1D6E56EC00F00001A36FA351D8A474
:1006380020EF03F022EF03F02BEF03F020EEC7F0DA
:1006480010EE7CF0060EDBCFE3FFE806FCE2A30524
:10065800D8A431EF03F033EF03F03CEF03F020EEC2
:10066800DAF010EE96F0040EDBCFE3FFE806FCE2CA
:10067800020EA319D8A443EF03F045EF03F04EEFA1
:1006880003F020EED4F010EE8AF0050EDBCFE3FF86
:10069800E806FCE2030EA319D8A455EF03F057EFC0
:1006A80003F060EF03F020EEC0F010EE83F0060ECA
:1006B800DBCFE3FFE806FCE2040EA319D8A467EF3A
:1006C80003F069EF03F072EF03F020EECEF010EEC6
:1006D80090F0050EDBCFE3FFE806FCE2050EA31958
:1006E800D8A479EF03F07BEF03F084EF03F020EE5A
:1006F800B8F010EE6CF0070EDBCFE3FFE806FCE283
:10070800060EA319D8A48BEF03F08DEF03F096EF34
:1007180003F020EEB0F010EE74F0070EDBCFE3FF2D
:10072800E806FCE2070EA319D8A49DEF03F09FEF9B
:1007380003F0A8EF03F020EEA4F010EE60F00B0E2B
:10074800DBCFE3FFE806FCE29B0E086E000E096EA5
:10075800CEEC05F0000EC6EC04F0000E00019C6F14
:100768004A0E2D6E0E0E2C6E190EE82EFED72C2E6C
:10077800FCD72D2EFAD700F000019C2B020E9C65A9
:10078800C8EF03F0CAEF03F0B4EF03F012EF03F081
:1007980054EF00F0000E07140F6E000E0814106ED0
:1007A800800E0914116E7F0E0A14126E0F5010106D
:1007B80011101210D8A4E3EF03F0E5EF03F0EDEF0A
:1007C80003F0000E076E000E086E000E096E000E94
:1007D8000A6E000E0B140F6E000E0C14106E800EB5
:1007E8000D14116E7F0E0E14126E0F501010111092
:1007F8001210D8A402EF04F004EF04F00CEF04F098
:10080800000E0B6E000E0C6E000E0D6E000E0E6EBE
:100818000AAE11EF04F013EF04F01CEF04F0076CBC
:10082800081ED8B0082A091ED8B0092A800E0A5610
:100838000EAE21EF04F023EF04F02CEF04F00B6C64
:100848000C1ED8B00C2A0D1ED8B00D2A800E0E56DC
:10085800000E071A000E081A000E091A800E0A1A4E
:10086800000E0B1A000E0C1A000E0D1A800E0E1A2E
:100878000B50075C0C5008580D5009580E500A5878
:10088800D8B049EF04F04BEF04F04EEF04F0D890E5
:100898004FEF04F0D88012001250C6EC04F04A0E54
:1008A800176E0E0E166E190EE82EFED7162EFCD7F2
:1008B800172EFAD700F012041310D8A466EF04F02C
:1008C80068EF04F069EF04F07E8EF6EC04F014C0D3
:1008D800D9FF15C0DAFF0BC0DEFF0CC0DDFF46EC08
:1008E80005F020EE04F01450D9261550DA220BC07A
:1008F800DEFF0CC0DDFF1EEC05F020EE02F0145008
:10090800D9261550DA220BC0DEFF0CC0DDFF12001D
:10091800000E0C6E000E0B6E09500A10D8B497EF3B
:1009280004F099EF04F0C1EF04F0010E0D6EA1EF91
:1009380004F0D89009360A360D2A0AAEA6EF04F05C
:10094800A8EF04F09DEF04F0D8900B360C36095050
:10095800075C0A500858D8A0B4EF04F0B6EF04F0CA
:10096800BBEF04F00950075E0A50085A0B80D89074
:100978000A3209320D2EA8EF04F00BC007F00CC0A4
:1009880008F01200076E0750D8A4CDEF04F0CFEF9F
:1009980004F0D2EF04F07F827E8E79880704D8A411
:1009A800D8EF04F0DAEF04F0DDEF04F07F827E9EEA
:1009B8007998020E0718D8A4E4EF04F0E6EF04F0E3
:1009C800E9EF04F07F927E8E7998030E0718D8A479
:1009D800F0EF04F0F2EF04F0F5EF04F07F927E9E62
:1009E80079881200C7EC06F0520EB7EC06F0B60E86
:1009F800B7EC06F0BDEC06F0530EB7EC06F0010EAE
:100A08008FEC05F00D6E0D50106E116A000E8FEC14
:100A180005F00D6E0D500F6E0E6A10500E10106E10
:100A280011500F10116EC2EC06F010C00BF011C07F
:100A38000CF01200C7EC06F0520EB7EC06F0B80E38
:100A4800B7EC06F0BDEC06F0530EB7EC06F0010E5D
:100A58008FEC05F00D6E0D50106E116A000E8FECC4
:100A680005F00D6E0D500F6E0E6A10500E10106EC0
:100A780011500F10116EC2EC06F010C00BF011C02F
:100A88000CF01200C7EC06F0520EB7EC06F0BA0EE6
:100A9800B7EC06F0BDEC06F0530EB7EC06F0010E0D
:100AA8008FEC05F00D6E0D50106E116A000E8FEC74
:100AB80005F00D6E0D500F6E0E6A10500E10106E70
:100AC80011500F10116EC2EC06F010C00BF011C0DF
:100AD8000CF01200600EF66E0B0EF76E000EF86E3C
:100AE80000EEA4F010EE3BF00900F5CFEEFFE55064
:100AF800E150FAE101EE00F0780EEE6AE806FDE159
:100B080000EE2EF0230EEE6AE806FDE151905192B8
:100B1800000105EF03F0096E59EC06F00E01DA87C3
:100B280059EC06F0D5CE0AF059EC06F00950D8B4C5
:100B3800A0EF05F0A4EF05F0086A082AA5EF05F074
:100B4800086A083A08460E01DA510818DF0B081837
:100B5800DA6FDA890A5012006C6967687420626C6F
:100B6800756520006F72616E6765200079656C6C31
:100B78006F772000677265656E2000776869746515
:100B8800200070696E6B2000626C756520007265CC
:030B9800642000D6
:100B9C00D9EF05F008C0D9FF09C0DAFFDF502FEC00
:100BAC0006F0084A092A08C0D9FF09C0DAFFDF504D
:100BBC00D8A4E3EF05F0E5EF05F0D0EF05F0010E5A
:100BCC004E6E0E012D8512001AEC06F0010E096E08
:100BDC00000E6DEC06F03F0E0B6E550EE82EFED798
:100BEC000B2EFCD700F0030E096E000E6DEC06F018
:100BFC00D50E096E010E6DEC06F012003B0E4A6428
:100C0C000AEF06F00CEF06F00EEF06F0000E4A6E3F
:100C1C004A2A4A04016E026A3C0E0124D96E010E66
:100C2C000220DA6EDF5012000E01D951F00B0809C8
:100C3C00D96FD98B9F0ED66F848A848CA79BA79D66
:100C4C001D0E1D6F1E0E1C6F1C0E6F6F1B0E706F1A
:100C5C001200076E3B0E4B6436EF06F038EF06F0D1
:100C6C003AEF06F0000E4B6E3C0E4B24D96EDA6A4E
:100C7C00010EDA2207C0DFFF4B2A1200016E130EA1
:100C8C004D644BEF06F04DEF06F04FEF06F0000E03
:100C9C004D6E2E0E4D24D96EDA6A000EDA2201C08A
:100CAC00DFFF4D2A12000E01D8B55FEF06F061EFA1
:100CBC0006F059EF06F0DACE07F01F0E0716D8A48F
:100CCC006AEF06F06CEF06F059EF06F012000A6EB0
:100CDC00C7EC06F0520EB7EC06F00A508009B7ECE0
:100CEC0006F00950B7EC06F0C2EC06F01200D65034
:100CFC001F0B4009D66ED688D650F00B0809D66E5D
:100D0C00D5880B0ED46EDC0ED36ED58E1200120E5F
:100D1C000E01626F110E156FE997E895330EE56FB2
:100D2C00000EE66FE789E88BE78F12004A504B18EC
:100D3C00D8A4A3EF06F0A6EF06F0010EA7EF06F07D
:100D4C00000E1200F28CF28A0E012D872D95298B44
:100D5C00F28E12008792869E81987F927E9E799861
:100D6C001200086E59EC06F008C0D5FE120059ECC2
:100D7C0006F00E01DA83120059EC06F00E01DA854A
:0C0D8C00120059EC06F00E01DA81120092
:020000040020DA
:10000000FF0FFF0FFF0FFF0FFF0FFF0FFF0FFF0F80
:020000040030CA
:0C000000AAFFFFFF9FFFFFFFFFFFFFFFB5
:00000001FF
