:0400000054EF00F0C9
:100008004382D9CF27F0DACF28F00E0137B50FEFAA
:1000180000F012EF00F0010E13EF00F0000E1B14B9
:100028000009D8B41AEF00F01CEF00F03FEF00F021
:100038008BEC03F00E01E46F23EC04F00009D8A464
:1000480028EF00F02AEF00F02EEF00F00E012D95BA
:10005800000E1B6E7CAE33EF00F037EF00F0266A1F
:10006800262A38EF00F0266A263226327C502618D7
:100078007F0B26187C6E0E0137A745EF00F047EF7F
:1000880000F04EEF00F0E3CE29F02950CBEC03F05E
:10009800010E1C6E28C0DAFF27C0D9FF4392110059
:1000A800F9EF02F004EC04F014EC04F02FEC04F087
:1000B80059EC03F037EC04F01CEC01F000019D6FE3
:1000C8009D51D8A46AEF00F06CEF00F075EF00F0D6
:1000D80020EEC1F010EE7CF0060EDBCFE3FFE80661
:1000E800FCE29D05D8A47BEF00F07DEF00F086EFE1
:1000F80000F020EED4F010EE96F0040EDBCFE3FF14
:10010800E806FCE2020E9D19D8A48DEF00F08FEFEF
:1001180000F098EF00F020EECEF010EE8AF0050E19
:10012800DBCFE3FFE806FCE2030E9D19D8A49FEF9E
:1001380000F0A1EF00F0AAEF00F020EEBAF010EE08
:1001480083F0060EDBCFE3FFE806FCE2040E9D1900
:10015800D8A4B1EF00F0B3EF00F0BCEF00F020EE50
:10016800C8F010EE90F0050EDBCFE3FFE806FCE2E6
:10017800050E9D19D8A4C3EF00F0C5EF00F0CEEF2F
:1001880000F020EEB2F010EE6CF0070EDBCFE3FFCC
:10019800E806FCE2060E9D19D8A4D5EF00F0D7EFCB
:1001A80000F0E0EF00F020EEAAF010EE74F0070E79
:1001B800DBCFE3FFE806FCE2070E9D19D8A4E7EFC2
:1001C80000F0E9EF00F0F2EF00F020EE9EF010EE04
:1001D80060F00B0EDBCFE3FFE806FCE29B0E2B6E14
:1001E800000E2C6E73EC03F0000E2FEC02F0010EE3
:1001F8001B6E0E012D85000E00019C6F4A0E426E8B
:100208000E0E416E190EE82EFED7412EFCD7422E57
:10021800FAD700F000019C2B020E9C6516EF01F046
:1002280018EF01F002EF01F060EF00F054EF00F07A
:10023800000E366E000E356ED7EC02F0010E3F6EE2
:10024800020E406E3F50640DF3CF2AF0F4CF2BF02E
:1002580040C02CF02D6ACDEC01F02AC03BF02BC039
:100268003CF03F50640DF3CF2AF0F4CF2BF0000E92
:100278002D6E030E2C6ECDEC01F02AC03DF02BC084
:100288003EF04050640DF3CF2AF0F4CF2BF0000E6F
:100298002D6E030E2C6ECDEC01F02AC039F02BC068
:1002A8003AF03C5009E1510E3B5CD8A05EEF01F0FA
:1002B80060EF01F09AEF01F03C5007E17D0E3B5CE6
:1002C800D8B069EF01F06BEF01F09AEF01F03E5002
:1002D80009E1510E3D5CD8A074EF01F076EF01F012
:1002E8009AEF01F03E5007E17D0E3D5CD8B07FEFFC
:1002F80001F081EF01F09AEF01F03A5009E1510E57
:10030800395CD8A08AEF01F08CEF01F09AEF01F088
:100318003A5007E17D0E395CD8B095EF01F097EFC0
:1003280001F09AEF01F04050CCEF01F03C5009E1A8
:10033800A10E3B5CD8A0A3EF01F0A5EF01F0C5EF3B
:1003480001F03E5009E1A10E3D5CD8A0AEEF01F0EE
:10035800B0EF01F0C5EF01F0000E366E020E356EFB
:10036800D7EC02F0000E366E030E356ED7EC02F0B5
:10037800000E366E030E356ED7EC02F03F50CCEF10
:1003880001F0000E366E010E356ED7EC02F0030E4A
:100398001200000E2F6E2DBED6EF01F0D4EF01F043
:1003A800DCEF01F02C6C2D1ED8B02D2A010E2F6E1B
:1003B8002BBEE3EF01F0E1EF01F0E9EF01F02A6C69
:1003C8002B1ED8B02B2A010E2F1A000E316E000EEC
:1003D800306E2C502D10D8B4F4EF01F0F6EF01F088
:1003E8001EEF02F0010E2E6EFEEF01F0D8902C36B3
:1003F8002D362E2A2DAE03EF02F005EF02F0FAEFAC
:1004080001F0D890303631362C502A5C2D502B58BC
:10041800D8A011EF02F013EF02F018EF02F02C5001
:100428002A5E2D502B5A3080D8902D322C322E2E09
:1004380005EF02F02F50D8B424EF02F026EF02F0B7
:100448002AEF02F0306C311ED8B0312A30C02AF0C1
:1004580031C02BF012002A6E2A50D8A436EF02F0D1
:1004680038EF02F03BEF02F07F827E8E79882A0413
:10047800D8A441EF02F043EF02F046EF02F07F828A
:100488007E8E7998020E2A18D8A44DEF02F04FEF0D
:1004980002F052EF02F07F927E8E7998030E2A18AE
:1004A800D8A459EF02F05BEF02F05EEF02F07F9202
:1004B8007E9E798812004EEC04F0520E3EEC04F059
:1004C800B60E3EEC04F044EC04F0530E3EEC04F09F
:1004D800010E1AEC03F0306E3050336E346A000EA1
:1004E8001AEC03F0306E3050326E316A33503110EE
:1004F800336E34503210346E49EC04F033C02EF0B1
:1005080034C02FF012004EEC04F0520E3EEC04F012
:10051800B80E3EEC04F044EC04F0530E3EEC04F04C
:10052800010E1AEC03F0306E3050336E346A000E50
:100538001AEC03F0306E3050326E316A335031109D
:10054800336E34503210346E49EC04F033C02EF060
:1005580034C02FF012004EEC04F0520E3EEC04F0C2
:10056800BA0E3EEC04F044EC04F0530E3EEC04F0FA
:10057800010E1AEC03F0306E3050336E346A000E00
:100588001AEC03F0306E3050326E316A335031104D
:10059800336E34503210346E49EC04F033C02EF010
:1005A80034C02FF0120035502FEC02F04A0E386E8E
:1005B8000E0E376E190EE82EFED7372EFCD7382EC2
:1005C800FAD700F05FEC02F02EC019F02FC01AF035
:1005D800AFEC02F02EC017F02FC018F087EC02F035
:1005E8002EC015F02FC016F01200760EF66E060E0D
:1005F800F76E000EF86E00EE9EF010EE3BF009006C
:10060800F5CFEEFFE550E150FAE101EE00F0780E8B
:10061800EE6AE806FDE100EE01F0230EEE6AE80658
:10062800FDE143904392000156EF00F02C6EE0ECA0
:1006380003F00E01DA87E0EC03F0D5CE2DF0E0EC04
:1006480003F02C50D8B42BEF03F02FEF03F02B6AF4
:100658002B2A30EF03F02B6A2B3A2B460E01DA5186
:100668002B18DF0B2B18DA6FDA892D5012006C6902
:1006780067687420626C756520006F72616E6765CB
:10068800200079656C6C6F772000677265656E2055
:10069800007768697465200070696E6B2000626C71
:0906A800756520007265642000F4
:1006B200A1EC03F0010E2C6E000EF4EC03F03F0EE1
:1006C2002E6E550EE82EFED72E2EFCD700F0030E0E
:1006D2002C6E000EF4EC03F0D50E2C6E010EF4EC31
:1006E20003F012007EEF03F02BC0D9FF2CC0DAFF1B
:1006F200DF50B6EC03F02B4A2C2A2BC0D9FF2CC0BA
:10070200DAFFDF50D8A488EF03F08AEF03F075EF29
:1007120003F012003B0E1F6491EF03F093EF03F01E
:1007220095EF03F0000E1F6E1F2A1F04246E256A28
:100732003C0E2424D96E010E2520DA6EDF50120001
:100742000E01D951F00B0809D96FD98B9F0ED66FC4
:10075200848A848CA79BA79D1D0E1D6F1E0E1C6F85
:100762001C0E6F6F1B0E706F12002A6E3B0E206400
:10077200BDEF03F0BFEF03F0C1EF03F0000E206EF8
:100782003C0E2024D96EDA6A010EDA222AC0DFFF7B
:10079200202A1200246E130E2264D2EF03F0D4EF4B
:1007A20003F0D6EF03F0000E226E010E2224D96E62
:1007B200DA6A000EDA2224C0DFFF222A12000E01BA
:1007C200D8B5E6EF03F0E8EF03F0E0EF03F0DACE9E
:1007D2002AF01F0E2A16D8A4F1EF03F0F3EF03F06C
:1007E200E0EF03F012002D6E4EEC04F0520E3EECE0
:1007F20004F02D5080093EEC04F02C503EEC04F045
:1008020049EC04F01200D6501F0B4009D66ED68870
:10081200D650F00B0809D66ED5880B0ED46EDC0EBE
:10082200D36ED58E1200120E0E01626F110E156F6D
:10083200E997E895330EE56F000EE66FE789E88BDE
:10084200E78F12001F502018D8A42AEF04F02DEFD2
:1008520004F0010E2EEF04F0000E1200F28CF28A68
:100862000E012D872D95298BF28E12008792869E7E
:1008720081987F927E9E799812002B6EE0EC03F0B5
:100882002BC0D5FE1200E0EC03F00E01DA83120059
:10089200E0EC03F00E01DA851200E0EC03F00E0149
:0408A200DA811200E5
:020000040020DA
:10000000FF0FFF0FFF0FFF0FFF0FFF0FFF0FFF0F80
:020000040030CA
:0C000000AAFFFFFF9FFFFFFFFFFFFFFFB5
:00000001FF
