:0400000044EF00F0D9
:100008005582D9CF03F0DACF04F00E0137B50FEFE0
:1000180000F012EF00F0010E13EF00F0000E4E1486
:100028000009D8B41AEF00F01CEF00F02EEF00F032
:1000380052EC0DF00E01E46FDAEC0DF00009D8A4D3
:1000480028EF00F02AEF00F02EEF00F00E012D95BA
:10005800000E4E6E0E0137A734EF00F036EF00F0B9
:100068003EEF00F0E3CE05F0055092EC0DF0010EE6
:100078000001FD6F04C0DAFF03C0D9FF55921100DB
:0400880005EF0DF083
:100E0000006C6576656C733D2564203B20726564DB
:100E10003D2564203B20626C75653D2564203B20A8
:100E2000677265656E3D2564203B20636C65617269
:100E30003D25640A000023C039F024C03AF025C0E3
:100E40003BF026C03CF027C03DF028C03EF029C052
:100E50003FF02AC040F040BE30EF07F033EF07F01C
:100E6000010E34EF07F0000E416E4150D8B43BEF55
:100E700007F03DEF07F04DEF07F0401E3F1E3E1E0E
:100E80003D1E3C1E3B1E3A1E396C000E3A223B2290
:100E90003C223D223E223F2240220001F3BF5BEF75
:100EA00007F0F35106E1F205D8B059EF07F05BEF18
:100EB00007F061EF07F0000E366E010E356E65EF3C
:100EC00007F0F2C035F0F3C036F0F0C037F0F1C0F3
:100ED00038F04150D8B46FEF07F071EF07F088EFAA
:100EE00007F03706D8A038064150D8A47AEF07F0AB
:100EF0007CEF07F082EF07F0000E346E2B0E336E9E
:100F000086EF07F0000E346E2D0E336E33C041F0C5
:100F1000000E436E1F0E426E000E0101D36F0DEFE7
:100F200008F04206D8A04306B40E4224D96E010E42
:100F30004320DA6E39C006F03AC007F03BC008F033
:100F40003CC009F03DC00AF03EC00BF03FC00CF0C1
:100F500040C00DF00A0E0E6E000E0F6E000E106EE9
:100F6000000E116E000E126E000E136E000E146E47
:100F7000000E156E1EEC09F006C02BF007C02CF019
:100F800008C02DF009C02EF00AC02FF00BC030F0C1
:100F90000CC031F00DC032F02BC018F02CC019F08D
:100FA000E5EC0CF01850300FDF6E3506D8A0360691
:100FB0003706D8A0380639C006F03AC007F03BC063
:100FC00008F03CC009F03DC00AF03EC00BF03FC045
:100FD0000CF040C00DF00A0E0E6E000E0F6E000EEB
:100FE000106E000E116E000E126E000E136E000ECB
:100FF000146E000E156E5AEC08F006C039F007C0EA
:101000003AF008C03BF009C03CF00AC03DF00BC00C
:101010003EF00CC03FF00DC040F043BE18EF08F0AA
:10102000435008E14204D8A018EF08F01AEF08F086
:1010300036EF08F039503A103B103C103D103E108E
:101040003F104010D8A427EF08F029EF08F091EFE7
:1010500007F036BE36EF08F0365006E13504D8B05A
:1010600034EF08F036EF08F091EF07F04150D8B4B4
:101070003CEF08F03EEF08F049EF08F04206D8A038
:101080004306B40E4224D96E010E4320DA6E41C0ED
:10109000DFFF21C016F022C017F0B40E4224186EF4
:1010A000010E4320196E37C01AF038C01BF01CEC3B
:1010B0000BF01200000E176E15BE63EF08F061EF23
:1010C00008F075EF08F0151E141E131E121E111ED7
:1010D000101E0F1E0E6C000E0F2210221122122263
:1010E000132214221522010E176E0DBE7CEF08F09C
:1010F0007AEF08F08EEF08F00D1E0C1E0B1E0A1E74
:10110000091E081E071E066C000E0722082209226F
:101110000A220B220C220D22010E171A20EE18F0C3
:10112000070EDE6AE806FDE20E500F1010101110D7
:101130001210131014101510D8B4A1EF08F0A3EF7B
:1011400008F0F5EF08F0010E166EB1EF08F0D89038
:101150000E360F3610361136123613361436153653
:10116000162A15AEB6EF08F0B8EF08F0A7EF08F0B2
:10117000D890183619361A361B361C361D361E36D0
:101180001F360E50065C0F5007581050085811506B
:10119000095812500A5813500B5814500C58155037
:1011A0000D58D8A0D6EF08F0D8EF08F0E9EF08F016
:1011B0000E50065E0F50075A1050085A1150095A27
:1011C00012500A5A13500B5A14500C5A15500D5AFB
:1011D0001880D89015321432133212321132103274
:1011E0000F320E32162EB8EF08F01750D8B4FBEFBE
:1011F00008F0FDEF08F00DEF09F01F1E1E1E1D1E6A
:101200001C1E1B1E1A1E191E186C000E19221A22F3
:101210001B221C221D221E221F2218C006F019C0EC
:1012200007F01AC008F01BC009F01CC00AF01DC06E
:101230000BF01EC00CF01FC00DF01200000E176E58
:101240000DBE27EF09F025EF09F039EF09F00D1E6B
:101250000C1E0B1E0A1E091E081E071E066C000E21
:101260000722082209220A220B220C220D22010E3B
:10127000176E15BE40EF09F03EEF09F050EF09F090
:10128000151E141E131E121E111E101E0F1E0E6C94
:10129000000E0F22102211221222132214221522D4
:1012A0000E500F10101011101210131014101510F2
:1012B000D8B45DEF09F05FEF09F0A7EF09F0010E78
:1012C000166E6DEF09F0D8900E360F3610361136C7
:1012D0001236133614361536162A15AE72EF09F08B
:1012E00074EF09F063EF09F00E50065C0F500758D9
:1012F000105008581150095812500A5813500B58E2
:1013000014500C5815500D58D8A089EF09F08BEFE8
:1013100009F09BEF09F00E50065E0F50075A10506F
:10132000085A1150095A12500A5A13500B5A1450A5
:101330000C5A15500D5AD8901532143213321232FD
:10134000113210320F320E32162E74EF09F0175090
:10135000D8B4ADEF09F0AFEF09F0BFEF09F00D1E03
:101360000C1E0B1E0A1E091E081E071E066C000E10
:101370000722082209220A220B220C220D2206C073
:1013800006F007C007F008C008F009C009F00AC05D
:101390000AF00BC00BF00CC00CF00DC00DF01200E9
:1013A00046C0D9FF47C0DAFFDECFF6FFDDCFF7FF3B
:1013B0000800F550250AD8A4E0EF09F0E2EF09F0A3
:1013C00062EF0AF046C0D9FF47C0DAFFDE2A000EFE
:1013D000DD22000E0001F16F000EF06FF0C0FCF096
:1013E000F269F36946C0D9FF47C0DAFFDECF68F083
:1013F000DDCF69F068C0F6FF69C0F7FF0800F5505F
:10140000640AD8B406EF0AF008EF0AF016EF0AF003
:1014100068C0F6FF69C0F7FF0800F550690AD8A454
:1014200014EF0AF016EF0AF059EF0AF048C0D9FF9E
:1014300049C0DAFFDFCF4AF0020EDE26DFCF4BF0E5
:10144000000EDD224AC0D9FF4BC0DAFFDECF60F0CC
:10145000DDCF61F0000E61BFFF0E626F636F646FDE
:10146000656F666F676F010E68254A6E000E692111
:101470004B6E46C0D9FF47C0DAFF4AC0DEFF4BC003
:10148000DDFF44C021F045C022F060C023F061C000
:1014900024F062C025F063C026F064C027F065C068
:1014A00028F066C029F067C02AF01BEC07F076EF41
:1014B0000AF046C0D9FF47C0DAFFDE2A000EDD225F
:1014C00076EF0AF046C0D9FF47C0DAFFDECFF6FF5D
:1014D000DDCFF7FF0800F550066E076A44C008F03C
:1014E00045C009F077EC0AF059EF0AF012000850F5
:1014F0000910D8B47EEF0AF080EF0AF089EF0AF005
:1015000008500910D8A487EF0AF089EF0AF08EEF8F
:101510000AF006500AEC0EF0DBEF0AF020EE09F0BC
:101520000850D9260950DA22DE50DE10D8B49BEFDD
:101530000AF09DEF0AF0B8EF0AF020EE09F008502B
:10154000D9260950DA2210EE03F00850E12609509E
:10155000E222DE50E65CE650800A0E6EDE50800A23
:101560000E58D8B0B6EF0AF0B8EF0AF0DBEF0AF089
:1015700020EE03F00850D9260950DA22DECF0AF017
:10158000DDCF0BF008C0D9FF09C0DAFFDECF0CF0C9
:10159000DDCF0DF00A500C24D96E0B500D20DA6E01
:1015A00006C0DFFF20EE03F00850D9260950DA22EA
:1015B000DE2A000EDD221200CBEC0DF0E6EC0DF081
:1015C00020EC0DF0EEEC0DF0000E0001EF6FEFC01F
:1015D00011F0126ADAEC0BF08B0E0001706F000E46
:1015E000716F010E726F0E0E736FEFC074F0756B3A
:1015F000FAC076F0FBC077F0F8C078F0F9C079F067
:10160000F6C07AF0F7C07BF0F4C07CF0F5C07DF056
:1016100089EC0BF08B0E076E000E086E3AEC0DF0A5
:10162000010E4E6E0E012D850001EF29030BEF6FA9
:10163000E7EF0AF044EF00F01BBE21EF0BF023EFC1
:101640000BF029EF0BF01AC01FF01BC020F02DEF9C
:101650000BF0000E206E000E1F6E000E1E6E000EB0
:101660001D6E3FEF0BF0000E076E200E066E16C0CB
:1016700008F017C009F077EC0AF01D4A1E2A1F5027
:101680001D5C1E50800A1C6E2050800A1C58D8A079
:101690004CEF0BF04EEF0BF033EF0BF018C00FF0E8
:1016A00019C010F016C011F017C012F0A2EC0CF027
:1016B0001200066E0650D8A460EF0BF062EF0BF03C
:1016C00065EF0BF07F827E8E79880604D8A46BEFDD
:1016D0000BF06DEF0BF070EF0BF07F827E9E799830
:1016E000020E0618D8A477EF0BF079EF0BF07CEF21
:1016F0000BF07F927E8E7998030E0618D8A483EFA4
:101700000BF085EF0BF088EF0BF07F927E9E7988CF
:101710001200740E00017E6F000E7F6F70C080F0AB
:1017200071C081F0000E846F000E836F000E8A6F0F
:10173000000E896F800E6A6F000E6B6F72C06CF0C6
:1017400073C06DF07E0E6E6F000E6F6FB2EC0BF01B
:10175000000183517025D96E84517121DA6E000E1B
:10176000DF6E12006CC04CF06DC04DF0C6EF0BF098
:101770006AC044F06BC045F04C0E466E000E476EDA
:101780006EC048F06FC049F0D0EC09F04CC0F6FFD5
:101790004DC0F7FF0800F5500009D8A4D2EF0BF0B8
:1017A000D4EF0BF0B8EF0BF0000E00016B6F000EE2
:1017B0006A6F1200115059EC0BF04A0E146E0E0EA7
:1017C000136E190EE82EFED7132EFCD7142EFAD75F
:1017D00000F002EC0CF00AC0FAF00BC0FBF07AEC5F
:1017E0000CF00AC0F8F00BC0F9F02AEC0CF00AC0BB
:1017F000F6F00BC0F7F052EC0CF00AC0F4F00BC09E
:10180000F5F0120005EC0EF0520EF5EC0DF0B60EF0
:10181000F5EC0DF0FBEC0DF0530EF5EC0DF0010EB8
:10182000C4EC0CF00C6E0C500F6E106A000EC4EC81
:101830000CF00C6E0C500E6E0D6A0F500D100F6EEA
:1018400010500E10106E00EC0EF00FC00AF010C019
:101850000BF0120005EC0EF0520EF5EC0DF0B80E88
:10186000F5EC0DF0FBEC0DF0530EF5EC0DF0010E68
:10187000C4EC0CF00C6E0C500F6E106A000EC4EC31
:101880000CF00C6E0C500E6E0D6A0F500D100F6E9A
:1018900010500E10106E00EC0EF00FC00AF010C0C9
:1018A0000BF0120005EC0EF0520EF5EC0DF0B40E3C
:1018B000F5EC0DF0FBEC0DF0530EF5EC0DF0010E18
:1018C000C4EC0CF00C6E0C500F6E106A000EC4ECE1
:1018D0000CF00C6E0C500E6E0D6A0F500D100F6E4A
:1018E00010500E10106E00EC0EF00FC00AF010C079
:1018F0000BF0120005EC0EF0520EF5EC0DF0BA0EE6
:10190000F5EC0DF0FBEC0DF0530EF5EC0DF0010EC7
:10191000C4EC0CF00C6E0C500F6E106A000EC4EC90
:101920000CF00C6E0C500E6E0D6A0F500D100F6EF9
:1019300010500E10106E00EC0EF00FC00AF010C028
:101940000BF01200000E156E000E146EB3EF0CF0CB
:1019500013C006F0076A11C008F012C009F077EC56
:101960000AF0144A152A14500F24D96E155010206D
:10197000DA6EDF50136E1350D8A4C1EF0CF0C3EF32
:101980000CF0A8EF0CF01200086EA7EC0DF00E01A1
:10199000DA87A7EC0DF0D5CE09F0A7EC0DF00850D2
:1019A000D8B4D5EF0CF0D9EF0CF0076A072ADAEFBC
:1019B0000CF0076A073A07460E01DA510718DF0BE9
:1019C0000718DA6FDA890950120019BEF2EF0CF02D
:1019D000195006E11804D8B0F0EF0CF0F2EF0CF05B
:1019E00000EF0DF018C01AF019C01BF01A1E1B1ED4
:1019F0001A4A1B2A1AC018F01BC019F004EF0DF088
:101A000018C018F019C019F0120001EE00F0D40E41
:101A1000EE6AE806FDE100EEF0F00F0EEE6AE80671
:101A2000FDE100EE4EF0070EEE6AE806FDE155908E
:101A30005592000EF86E0E0EF76E0001DCEF0AF004
:101A400068EC0DF0010E086E000EBBEC0DF03F0EC1
:101A50000A6E550EE82EFED70A2EFCD700F0030EB4
:101A6000086E000EBBEC0DF0D50E086E010EBBEC3F
:101A70000DF0120045EF0DF007C0D9FF08C0DAFFE6
:101A8000DF507DEC0DF0074A082A07C0D9FF08C0D7
:101A9000DAFFDF50D8A44FEF0DF051EF0DF03CEF1F
:101AA0000DF012003B0E516458EF0DF05AEF0DF09F
:101AB0005CEF0DF0000E516E512A5104016E026A66
:101AC000640E0124D96E010E0220DA6EDF5012007E
:101AD0000E01D951F00B0809D96FD98B9F0ED66F23
:101AE000848A848CA79BA79D1D0E1D6F1E0E1C6FE4
:101AF0001C0E6F6F1B0E706F1200066E3B0E526451
:101B000084EF0DF086EF0DF088EF0DF0000E526EB1
:101B1000640E5224D96EDA6A010EDA2206C0DFFFA3
:101B2000522A1200016E130E546499EF0DF09BEFD0
:101B30000DF09DEF0DF0000E546EA00E5424D96EE2
:101B4000DA6A010EDA2201C0DFFF542A12000E0108
:101B5000D8B5ADEF0DF0AFEF0DF0A7EF0DF0DACE89
:101B600006F01F0E0616D8A4B8EF0DF0BAEF0DF070
:101B7000A7EF0DF01200096E05EC0EF0520EF5EC19
:101B80000DF009508009F5EC0DF00850F5EC0DF062
:101B900000EC0EF01200120E0E01626F110E156FA6
:101BA000E997E895330EE56F000EE66FE789E88B5D
:101BB000E78F120051505218D8A4E1EF0DF0E4EF76
:101BC0000DF0010EE5EF0DF0000E1200F28CF28A1E
:101BD0000E012D872D95298BF28E12008792869EFD
:101BE00081987F927E9E79981200076EA7EC0DF087
:101BF00007C0D5FE1200A7EC0DF00E01DA8312002B
:101C0000A7EC0DF00E01DA851200A7EC0DF00E0125
:061C1000DA81120012004F
:020000040020DA
:10000000FF0FFF0FFF0FFF0FFF0FFF0FFF0FFF0F80
:020000040030CA
:0C000000AAFFFFFF9FFFFFFFFFFFFFFFB5
:00000001FF
