:040000004DEF00F0D0
:100008005782D9CF03F0DACF04F00E0137B50FEFDE
:1000180000F012EF00F0010E13EF00F0000E521482
:100028000009D8B41AEF00F01CEF00F038EF00F028
:100038005DEC08F00009D8A424EF00F026EF00F0EA
:100048002AEF00F00E012D95000E526E5DEC08F0BF
:100058000009D8B432EF00F034EF00F038EF00F0C8
:10006800D5EC07F00E01E46F0E0137A73EEF00F064
:1000780040EF00F047EF00F0E3CE05F0055015EC37
:1000880008F0010E536E04C0DAFF03C0D9FF57927F
:10009800110058EF07F0000E126E000E116E39C0F5
:1000A80013F03AC014F074EC06F0CD0E186ECC0EB6
:1000B800196ECC0E1A6E3F0E1B6E20EE04F03950EE
:1000C800D9263A50DA22DECF3BF0DDCF3CF03BC0F8
:1000D80006F03CC007F0086A096A000E86EC04F0D6
:1000E80006C014F007C015F008C016F009C017F0D4
:1000F80071EC02F014C02DF015C02EF016C02FF0D0
:1001080017C030F039C0D9FF3AC0DAFFDECF3DF072
:10011800DDCF3EF03DC006F03EC007F0086A096A30
:10012800000E86EC04F006C031F007C032F008C0BB
:1001380033F009C034F0F2EC05F0D8B0A6EF00F0C7
:10014800A8EF00F09EEF01F0CD0E186ECC0E196EE0
:10015800CC0E1A6E3F0E1B6E20EE02F03950D926D7
:100168003A50DA22DECF3BF0DDCF3CF03BC006F060
:100178003CC007F0086A096A000E86EC04F006C065
:1001880014F007C015F008C016F009C017F071EC9C
:1001980002F014C02DF015C02EF016C02FF017C0B5
:1001A80030F039C0D9FF3AC0DAFFDECF3DF0DDCFFD
:1001B8003EF03DC006F03EC007F0086A096A000E2E
:1001C80086EC04F006C031F007C032F008C033F006
:1001D80009C034F0F2EC05F0D8B0F5EF00F0F7EF15
:1001E80000F09EEF01F0000E126E020E116E39C083
:1001F80013F03AC014F074EC06F020EE04F0395015
:10020800D9263A50DA2239C0E1FF3AC0E2FFE6CFF8
:100218003DF0E5CF3EF0D8903D363E36DE503D5CB1
:10022800DE503E58D8B01BEF01F01DEF01F020EF73
:1002380001F0040E70EF02F0000E126E030E116E44
:1002480039C013F03AC014F074EC06F0330E186E8F
:10025800330E196E730E1A6E400E1B6E39C0D9FF1D
:100268003AC0DAFFDECF3BF0DDCF3CF03BC006F012
:100278003CC007F0086A096A000E86EC04F006C064
:1002880014F007C015F008C016F009C017F071EC9B
:1002980002F014C02DF015C02EF016C02FF017C0B4
:1002A80030F020EE02F03950D9263A50DA22DECF6B
:1002B8003DF0DDCF3EF03DC006F03EC007F0086AD5
:1002C800096A000E86EC04F006C031F007C032F06F
:1002D80008C033F009C034F0F2EC05F0D8B077EF7D
:1002E80001F079EF01F07CEF01F0050E70EF02F0FC
:1002F80020EE02F03950D9263A50DA2239C0E1FF0F
:100308003AC0E2FFE6CF3DF0E5CF3EF0D8903D366B
:100318003E36DE503D5CDE503E58D8B096EF01F0D8
:1003280098EF01F09BEF01F0060E70EF02F0010E5E
:1003380070EF02F039C0D9FF3AC0DAFFDECF3BF0E8
:10034800DDCF3CF03BC006F03CC007F0086A096A04
:10035800000E86EC04F006C02DF007C02EF008C091
:100368002FF009C030F0660E186E660E196EA60ED4
:100378001A6E3F0E1B6E20EE02F03950D9263A5005
:10038800DA22DECF3DF0DDCF3EF03DC006F03EC0C4
:1003980007F0086A096A000E86EC04F006C014F03B
:1003A80007C015F008C016F009C017F071EC02F08C
:1003B80014C031F015C032F016C033F017C034F055
:1003C800F2EC05F0D8B0EBEF01F0EDEF01F053EFF0
:1003D80002F039C0D9FF3AC0DAFFDECF3BF0DDCFFB
:1003E8003CF03BC006F03CC007F0086A096A000E02
:1003F80086EC04F006C02DF007C02EF008C02FF0E0
:1004080009C030F0660E186E660E196EA60E1A6ECA
:100418003F0E1B6E20EE04F03950D9263A50DA22EE
:10042800DECF3DF0DDCF3EF03DC006F03EC007F028
:10043800086A096A000E86EC04F006C014F007C0CA
:1004480015F008C016F009C017F071EC02F014C0DE
:1004580031F015C032F016C033F017C034F0F2ECAA
:1004680005F0D8B03AEF02F03CEF02F053EF02F09B
:1004780020EE04F03950D9263A50DA22A10EDE5C7B
:100488000F0EDE58D8A04BEF02F04DEF02F050EF00
:1004980002F0070E70EF02F0020E70EF02F0000E8D
:1004A800126E010E116E39C013F03AC014F074ECDC
:1004B80006F039C0D9FF3AC0DAFFE90EDE5C030E58
:1004C800DE58D8A06AEF02F06CEF02F06FEF02F08E
:1004D800000E70EF02F0030E12001750800B206E12
:1004E80017501724266E16AE7CEF02F07EEF02F04E
:1004F8007FEF02F026802650D8B485EF02F087EF10
:1005080002F09AEF02F02628D8A48DEF02F08FEFC0
:1005180002F097EF02F0000E146E000E156E000E3A
:10052800166E000E176E168EA2EF02F0000E146EF5
:10053800000E156E000E166E000E176E1B50800B07
:10054800201A1B501B24256E1AAEADEF02F0AFEF38
:1005580002F0B0EF02F025802550D8B4B6EF02F0D3
:10056800B8EF02F0CBEF02F02528D8A4BEEF02F0D6
:10057800C0EF02F0C8EF02F0000E186E000E196E00
:10058800000E1A6E000E1B6E1A8ED3EF02F0000ECC
:10059800186E000E196E000E1A6E000E1B6E255096
:1005A800D8B4D9EF02F0DBEF02F0E3EF02F0265007
:1005B800D8A4E1EF02F0E3EF02F0EDEF02F0000E55
:1005C800146E000E156E000E166E000E176E85EF77
:1005D80004F01A501402F3CF2BF0F4CF2CF02B5068
:1005E800216E226A236A246A2C50276E286A296A97
:1005F8002A6A19501502F3CF2BF0F4CF2CF02B50A8
:100608002126000E2222232224222C502726000EE7
:10061800282229222A2218501602F3CF2BF0F4CFD1
:100628002CF02B502126000E2222232224222C508B
:100638002726000E282229222A2223C024F022C09D
:1006480023F021C022F0216A18501502F3CF2BF0B5
:10065800F4CF2CF02B5021262C502222000E2322DE
:10066800000E242219501402F3CF2BF0F4CF2CF0F3
:100678002B5021262C502222000E2322000E242249
:1006880023C024F022C023F021C022F0216A185090
:100698001402F3CF2BF0F4CF2CF02B5021262C5042
:1006A8002222000E2322000E24221A501502F3CF14
:1006B8002BF0F4CF2CF02B5027262C502822000E9C
:1006C8002922000E2A2219501602F3CF2BF0F4CF5C
:1006D8002CF02B5027262C502822000E2922000E01
:1006E8002A221A501602F3CF2BF0F4CF2CF02B50FD
:1006F8001C6E2C501D6E1E6A1F6A1EC01FF01DC086
:100708001EF01CC01DF01C6A1C5027261D502822F4
:100718001E5029221F502A2221C01CF022C01DF081
:1007280023C01EF024C01FF0190EA0EF03F0D890CC
:100738001F321E321D321C32E82E9BEF03F01C5074
:1007480027261D5028221E5029221F502A2223C046
:1007580024F022C023F021C022F0216A255026C0AF
:100768001CF01D6A1C26000E1D22820E1C242B6EF6
:10077800FF0E1D202C6ED6EF03F0D89027362836B2
:1007880029362A3624AECBEF03F0CDEF03F0CEEFB7
:1007980003F02780D89021362236233624362B06BC
:1007A800D8A02C0629AEDBEF03F0DDEF03F0C1EF94
:1007B80003F0000E256E24AEE4EF03F0E6EF03F03D
:1007C8000AEF04F0FF0E21141C6EFF0E22141D6E9A
:1007D800FF0E23141E6E7F0E24141F6E1C501D1056
:1007E8001E101F10D8B4FBEF03F0FDEF03F001EF6C
:1007F80004F0010E256E0AEF04F027A006EF04F0BE
:1008080008EF04F00AEF04F0FDEF03F02550D8B428
:1008180010EF04F012EF04F036EF04F0010E272673
:10082800000E282229222A222AA01DEF04F01FEFF9
:1008380004F036EF04F027C01CF028C01DF029C0D2
:100848001EF02AC01FF01F341F321E321D321C3208
:100858001CC027F01DC028F01EC029F01FC02AF0B8
:100868002B4A2C2A2CBE41EF04F02C5008E12B28EF
:10087800D8A041EF04F043EF04F04DEF04F0000E70
:10088800276E000E286E800E296E7F0E2A6E7BEF73
:1008980004F02CBE5AEF04F02C5006E12B04D8B01B
:1008A80058EF04F05AEF04F066EF04F0000E276EDC
:1008B800000E286E000E296E000E2A6E000E206EA5
:1008C8007BEF04F02BC026F0FF0E2716FF0E28162C
:1008D8007F0E2916000E2A1626A075EF04F077EF72
:1008E80004F078EF04F0298ED89026302A6E205034
:1008F8002A1227C014F028C015F029C016F02AC003
:1009080017F012000E6E0E50D8B48DEF04F08FEF72
:1009180004F0B1EF04F009BE96EF04F094EF04F090
:10092800B1EF04F006C00AF007C00BF008C00CF0E5
:1009380009C00DF00A1E0B1E0C1E0D1E0A2A000E01
:100948000B220C220D220AC010F00BC011F00CC0B3
:1009580012F00DC013F0B9EF04F006C010F007C094
:1009680011F008C012F009C013F006500710081063
:100978000910D8A4C2EF04F0C4EF04F0CEEF04F0DD
:10098800000E066E000E076E000E086E000E096E51
:100998005FEF05F0960E0F6ED8EF04F00F2AD8908F
:1009A8001332123211321032000E10140A6E000E79
:1009B80011140B6E000E12140C6EFE0E13140D6E35
:1009C8000A500B100C100D10D8A4EDEF04F0EFEF47
:1009D80004F0D2EF04F0FDEF04F00F2A010E102608
:1009E800000E112212221322D89013321232113221
:1009F8001032000E10140A6E000E11140B6E000E49
:100A080012140C6EFF0E13140D6E0A500B100C10FE
:100A18000D10D8A412EF05F014EF05F0F1EF04F073
:100A28001CEF05F00F06D890103611361236133623
:100A380012BE21EF05F023EF05F02BEF05F0020EB3
:100A48000F6029EF05F02BEF05F016EF05F00FB05A
:100A580030EF05F032EF05F033EF05F0129ED89035
:100A68000F320FC00AF00B6A0C6A0D6A0AC00DF04B
:100A78000C6A0B6A0A6A0A5010120B5011120C50B9
:100A880012120D5013120E50D8B44DEF05F04FEF5F
:100A980005F057EF05F009BE56EF05F054EF05F0E5
:100AA80057EF05F0138E10C006F011C007F012C002
:100AB80008F013C009F012004EEC08F069EC08F0D9
:100AC800BBEC07F071EC08F054C041F055C042F09F
:100AD80056C043F0000EB0EC06F0450E396E000E1D
:100AE8003A6E4FEC00F04B6E4B50D8A47EEF05F0F9
:100AF80080EF05F082EF05F0770E416E4B04D8A425
:100B080088EF05F08AEF05F08CEF05F0720E416E64
:100B1800020E4B18D8A493EF05F095EF05F097EF68
:100B280005F0620E416E030E4B18D8A49EEF05F037
:100B3800A0EF05F0A2EF05F0670E416E040E4B180A
:100B4800D8A4A9EF05F0ABEF05F0ADEF05F0700EF6
:100B5800416E050E4B18D8A4B4EF05F0B6EF05F0BA
:100B6800B8EF05F0790E416E060E4B18D8A4BFEF0A
:100B780005F0C1EF05F0C3EF05F06F0E416E070EEB
:100B88004B18D8A4CAEF05F0CCEF05F0CEEF05F06E
:100B98006C0E416E410E076E000E086E9FEC07F05A
:100BA800000EB0EC06F0000E446E4A0E406E0E0EBB
:100BB8003F6E190EE82EFED73F2EFCD7402EFAD7EF
:100BC80000F0442A020E4464ECEF05F0EEEF05F065
:100BD800D9EF05F06EEF05F04DEF00F0000E2D1483
:100BE800356E000E2E14366E800E2F14376E7F0E63
:100BF8003014386E3550361037103810D8A407EF37
:100C080006F009EF06F011EF06F0000E2D6E000E4B
:100C18002E6E000E2F6E000E306E000E3114356EE3
:100C2800000E3214366E800E3314376E7F0E341475
:100C3800386E3550361037103810D8A426EF06F025
:100C480028EF06F030EF06F0000E316E000E326E1F
:100C5800000E336E000E346E30AE35EF06F037EF0F
:100C680006F040EF06F02D6C2E1ED8B02E2A2F1E4F
:100C7800D8B02F2A800E305634AE45EF06F047EF35
:100C880006F050EF06F0316C321ED8B0322A331E0F
:100C9800D8B0332A800E3456000E2D1A000E2E1AA4
:100CA800000E2F1A800E301A000E311A000E321A5A
:100CB800000E331A800E341A31502D5C32502E58E3
:100CC80033502F5834503058D8B06DEF06F06FEFCE
:100CD80006F072EF06F0D89073EF06F0D880120095
:100CE8001150B0EC06F04A0E166E0E0E156E190E67
:100CF800E82EFED7152EFCD7162EFAD700F01104D1
:100D08001210D8A48AEF06F08CEF06F08DEF06F0EB
:100D18007E8EE0EC06F013C0D9FF14C0DAFF0AC0DB
:100D2800DEFF0BC0DDFF30EC07F020EE04F01350BF
:100D3800D9261450DA220AC0DEFF0BC0DDFF08EC0A
:100D480007F020EE02F01350D9261450DA220AC018
:100D5800DEFF0BC0DDFF1200066E0650D8A4B7EF09
:100D680006F0B9EF06F0BCEF06F07F827E8E798838
:100D78000604D8A4C2EF06F0C4EF06F0C7EF06F0E9
:100D88007F827E9E7998020E0618D8A4CEEF06F0D0
:100D9800D0EF06F0D3EF06F07F927E8E7998030E9F
:100DA8000618D8A4DAEF06F0DCEF06F0DFEF06F05D
:100DB8007F927E9E7988120088EC08F0520E78ECBB
:100DC80008F0B60E78EC08F07EEC08F0530E78ECDC
:100DD80008F0010E7EEC07F00C6E0C500F6E106AD6
:100DE800000E7EEC07F00C6E0C500E6E0D6A0F5064
:100DF8000D100F6E10500E10106E83EC08F00FC01F
:100E08000AF010C00BF0120088EC08F0520E78ECD3
:100E180008F0B80E78EC08F07EEC08F0530E78EC89
:100E280008F0010E7EEC07F00C6E0C500F6E106A85
:100E3800000E7EEC07F00C6E0C500E6E0D6A0F5013
:100E48000D100F6E10500E10106E83EC08F00FC0CE
:100E58000AF010C00BF0120088EC08F0520E78EC83
:100E680008F0BA0E78EC08F07EEC08F0530E78EC37
:100E780008F0010E7EEC07F00C6E0C500F6E106A35
:100E8800000E7EEC07F00C6E0C500E6E0D6A0F50C3
:100E98000D100F6E10500E10106E83EC08F00FC07E
:100EA8000AF010C00BF012001A0EF66E110EF76E53
:100EB800000EF86E0900F5CF54F00900F5CF55F093
:100EC8000900F5CF56F001EE00F0640EEE6AE80670
:100ED800FDE100EE60F0500EEE6AE806FDE100EE7E
:100EE8004CF0080EEE6AE806FDE1579057920001B3
:100EF80060EF05F0086E2AEC08F00E01DA872AEC9C
:100F080008F0D5CE09F02AEC08F00850D8B48FEFD5
:100F180007F093EF07F0076A072A94EF07F0076ACC
:100F2800073A07460E01DA510718DF0B0718DA6F80
:100F3800DA8909501200AAEF07F007C0D9FF08C0E4
:100F4800DAFFDF5000EC08F0074A082A07C0D9FF8B
:100F580008C0DAFFDF50D8A4B4EF07F0B6EF07F007
:100F6800A1EF07F0010E526E0E012D851200EBEC79
:100F780007F0010E086E000E3EEC08F03F0E0A6EF8
:100F8800550EE82EFED70A2EFCD700F0030E086E89
:100F9800000E3EEC08F0D50E086E010E3EEC08F08F
:100FA8001200630E4E64DBEF07F0DDEF07F0DFEFB2
:100FB80007F0000E4E6E4E2A4E04016E026A000EB5
:100FC8000124D96E010E0220DA6EDF5012000E01E4
:100FD800D951F00B0809D96FD98B9F0ED66F848A27
:100FE800848CA79BA79D1D0E1D6F1E0E1C6F1C0ECB
:100FF8006F6F1B0E706F1200066E630E4F6407EF63
:1010080008F009EF08F00BEF08F0000E4F6E000E25
:101018004F24D96EDA6A010EDA2206C0DFFF4F2AA2
:101028001200016E130E51641CEF08F01EEF08F059
:1010380020EF08F0000E516E9C0E5124D96EDA6A2A
:10104800000EDA2201C0DFFF512A12000E01D8B5C6
:1010580030EF08F032EF08F02AEF08F0DACE06F0A9
:101068001F0E0616D8A43BEF08F03DEF08F02AEF54
:1010780008F01200096E88EC08F0520E78EC08F0BF
:101088000950800978EC08F0085078EC08F083ECF7
:1010980008F01200120E0E01626F110E156FE9971B
:1010A800E895330EE56F000EE66FE789E88BE78F6A
:1010B80012004E504F18D8A464EF08F067EF08F0FC
:1010C800010E68EF08F0000E1200F28CF28A0E0191
:1010D8002D872D95298BF28E12008792869E8198F6
:1010E8007F927E9E79981200076E2AEC08F007C05E
:1010F800D5FE12002AEC08F00E01DA8312002AEC61
:1011080008F00E01DA8512002AEC08F00E01DA81E7
:051118001200300A0086
:020000040020DA
:10000000FF0FFF0FFF0FFF0FFF0FFF0FFF0FFF0F80
:020000040030CA
:0C000000AAFFFFFF9FFFFFFFFFFFFFFFB5
:00000001FF
