:040000004DEF00F0D0
:100008005782D9CF03F0DACF04F00E0137B50FEFDE
:1000180000F012EF00F0010E13EF00F0000E521482
:100028000009D8B41AEF00F01CEF00F038EF00F028
:100038002FEC06F00009D8A424EF00F026EF00F01A
:100048002AEF00F00E012D95000E526E2FEC06F0EF
:100058000009D8B432EF00F034EF00F038EF00F0C8
:10006800A7EC05F00E01E46F0E0137A73EEF00F094
:1000780040EF00F047EF00F0E3CE05F00550E7EC65
:1000880005F0010E536E04C0DAFF03C0D9FF579282
:10009800110051EF05F0000E126E000E116E1BC01C
:1000A80013F01CC014F012EC04F020EE04F01B5006
:1000B800D9261C50DA22DECF08F0DDCF09F01BC0AC
:1000C800D9FF1CC0DAFFDECF06F0DDCF07F04EEC1B
:1000D80004F006C00DF007C00EF00F6A106A000E9B
:1000E80024EC02F00DC023F00EC024F00FC025F060
:1000F80010C026F020EE02F01B50D9261C50DA2240
:10010800DECF08F0DDCF09F01BC0D9FF1CC0DAFF35
:10011800DECF06F0DDCF07F04EEC04F006C00DF0A0
:1001280007C00EF00F6A106A000E24EC02F00DC032
:1001380027F00EC028F00FC029F010C02AF020EEDA
:1001480002F01B50D9261C50DA22DECF08F0DDCF92
:1001580009F020EE04F01B50D9261C50DA22DECF1D
:1001680006F0DDCF07F04EEC04F006C00DF007C036
:100178000EF00F6A106A000E24EC02F00DC01FF09A
:100188000EC020F00FC021F010C022F0330E066E12
:10019800330E076E330E086E3F0E096E23C00AF049
:1001A80024C00BF025C00CF026C00DF090EC03F035
:1001B800D8B0E1EF00F0E3EF00F077EF01F023C0F3
:1001C80006F024C007F025C008F026C009F0330E59
:1001D8000A6E330E0B6EB30E0C6E3F0E0D6E90EC66
:1001E80003F0D8B0FAEF00F0FCEF00F077EF01F081
:1001F800330E066E330E076E330E086E3F0E096E11
:1002080027C00AF028C00BF029C00CF02AC00DF056
:1002180090EC03F0D8B013EF01F015EF01F077EF91
:1002280001F027C006F028C007F029C008F02AC04E
:1002380009F0330E0A6E330E0B6EB30E0C6E3F0EC2
:100248000D6E90EC03F0D8B02CEF01F02EEF01F01A
:1002580077EF01F0330E066E330E076E330E086E1D
:100268003F0E096E1FC00AF020C00BF021C00CF031
:1002780022C00DF090EC03F0D8B045EF01F047EF45
:1002880001F077EF01F01FC006F020C007F021C091
:1002980008F022C009F0330E0A6E330E0B6EB30E4F
:1002A8000C6E3F0E0D6E90EC03F0D8B05EEF01F0CF
:1002B80060EF01F077EF01F020EE04F01B50D92633
:1002C8001C50DA22A10EDE5C0F0EDE58D8A06FEFAC
:1002D80001F071EF01F074EF01F0070E23EF02F067
:1002E800020E23EF02F0330E066E330E076EB30EC6
:1002F800086E3F0E096E23C00AF024C00BF025C01B
:100308000CF026C00DF090EC03F0D8B08EEF01F0A1
:1003180090EF01F006EF02F0330E066E330E076E13
:10032800B30E086E3F0E096E27C00AF028C00BF006
:1003380029C00CF02AC00DF090EC03F0D8B0A7EF5C
:1003480001F0A9EF01F006EF02F0000E126E020EA6
:10035800116E1BC013F01CC014F012EC04F020EE58
:1003680004F01B50D9261C50DA22E90EDE5C030E7D
:10037800DE58D8A0C2EF01F0C4EF01F0C7EF01F0DA
:10038800040E23EF02F0000E126E030E116E1BC056
:1003980013F01CC014F012EC04F020EE02F01B5015
:1003A800D9261C50DA227D0EDE5C150EDE58D8A048
:1003B800E0EF01F0E2EF01F0E5EF01F0050E23EFC9
:1003C80002F0000E126E030E116E1BC013F01CC05B
:1003D80014F012EC04F020EE02F01B50D9261C5049
:1003E800DA22D10EDE5C070EDE58D8A0FEEF01F04F
:1003F80000EF02F003EF02F0060E23EF02F0010E09
:1004080023EF02F0000E126E010E116E1BC013F0E6
:100418001CC014F012EC04F01BC0D9FF1CC0DAFF9A
:10042800E90EDE5C030EDE58D8A01DEF02F01FEFC8
:1004380002F022EF02F0000E23EF02F0030E12008A
:10044800156E1550D8B42BEF02F02DEF02F04FEFD8
:1004580002F010BE34EF02F032EF02F04FEF02F07C
:100468000DC011F00EC012F00FC013F010C014F040
:10047800111E121E131E141E112A000E1222132200
:10048800142211C017F012C018F013C019F014C0CC
:100498001AF057EF02F00DC017F00EC018F00FC099
:1004A80019F010C01AF00D500E100F101010D8A42B
:1004B80060EF02F062EF02F06CEF02F0000E0D6EDA
:1004C800000E0E6E000E0F6E000E106EFDEF02F0A5
:1004D800960E166E76EF02F0162AD8901A32193256
:1004E80018321732000E1714116E000E1814126EFF
:1004F800000E1914136EFE0E1A14146E11501210F9
:1005080013101410D8A48BEF02F08DEF02F070EFE7
:1005180002F09BEF02F0162A010E1726000E182291
:1005280019221A22D8901A32193218321732000EAC
:100538001714116E000E1814126E000E1914136E93
:10054800FF0E1A14146E1150121013101410D8A4A0
:10055800B0EF02F0B2EF02F08FEF02F0BAEF02F064
:100568001606D8901736183619361A3619BEBFEF40
:1005780002F0C1EF02F0C9EF02F0020E1660C7EFF9
:1005880002F0C9EF02F0B4EF02F016B0CEEF02F0BD
:10059800D0EF02F0D1EF02F0199ED890163216C0B3
:1005A80011F0126A136A146A11C014F0136A126AFD
:1005B800116A1150171212501812135019121450B0
:1005C8001A121550D8B4EBEF02F0EDEF02F0F5EF88
:1005D80002F010BEF4EF02F0F2EF02F0F5EF02F0D5
:1005E8001A8E17C00DF018C00EF019C00FF01AC0FF
:1005F80010F0120020EC06F03BEC06F08DEC05F054
:1006080043EC06F054C02DF055C02EF056C02FF024
:10061800000E88EC04F0310E1B6E000E1C6E4FECC1
:1006280000F0376E3750D8A41CEF03F01EEF03F02C
:1006380020EF03F0770E2D6E3704D8A426EF03F0D1
:1006480028EF03F02AEF03F0720E2D6E020E371812
:10065800D8A431EF03F033EF03F035EF03F0620E67
:100668002D6E030E3718D8A43CEF03F03EEF03F0CD
:1006780040EF03F0670E2D6E040E3718D8A447EF2D
:1006880003F049EF03F04BEF03F0700E2D6E050EEB
:100698003718D8A452EF03F054EF03F056EF03F0E5
:1006A800790E2D6E060E3718D8A45DEF03F05FEFB4
:1006B80003F061EF03F06F0E2D6E070E3718D8A404
:1006C80068EF03F06AEF03F06CEF03F06C0E2D6E29
:1006D8002D0E076E000E086E71EC05F0000E88EC0A
:1006E80004F0000E306E4A0E2C6E0E0E2B6E190E94
:1006F800E82EFED72B2EFCD72C2EFAD700F0302A66
:10070800020E30648AEF03F08CEF03F077EF03F00A
:100718000CEF03F04DEF00F0000E06140E6E000E05
:1007280007140F6E800E0814106E7F0E0914116ED8
:100738000E500F1010101110D8A4A5EF03F0A7EF5A
:1007480003F0AFEF03F0000E066E000E076E000E0A
:10075800086E000E096E000E0A140E6E000E0B14C1
:100768000F6E800E0C14106E7F0E0D14116E0E504D
:100778000F1010101110D8A4C4EF03F0C6EF03F047
:10078800CEEF03F0000E0A6E000E0B6E000E0C6E1C
:10079800000E0D6E09AED3EF03F0D5EF03F0DEEFD8
:1007A80003F0066C071ED8B0072A081ED8B0082A1E
:1007B800800E09560DAEE3EF03F0E5EF03F0EEEF20
:1007C80003F00A6C0B1ED8B00B2A0C1ED8B00C2AEA
:1007D800800E0D56000E061A000E071A000E081A93
:1007E800800E091A000E0A1A000E0B1A000E0C1AB7
:1007F800800E0D1A0A50065C0B5007580C5008580A
:100808000D500958D8B00BEF04F00DEF04F010EFBD
:1008180004F0D89011EF04F0D8801200115088EC41
:1008280004F04A0E166E0E0E156E190EE82EFED73F
:10083800152EFCD7162EFAD700F011041210D8A4E2
:1008480028EF04F02AEF04F02BEF04F07E8EB8ECCA
:1008580004F013C0D9FF14C0DAFF0AC0DEFF0BC0D2
:10086800DDFF08EC05F020EE04F01350D9261450F3
:10087800DA220AC0DEFF0BC0DDFFE0EC04F020EE58
:1008880002F01350D9261450DA220AC0DEFF0BC03A
:10089800DDFF1200000E0B6E000E0A6E08500910E4
:1008A800D8B459EF04F05BEF04F083EF04F0010EC5
:1008B8000C6E63EF04F0D890083609360C2A09AE9E
:1008C80068EF04F06AEF04F05FEF04F0D8900A369E
:1008D8000B360850065C09500758D8A076EF04F08C
:1008E80078EF04F07DEF04F00850065E0950075ACF
:1008F8000A80D890093208320C2E6AEF04F00AC038
:1009080006F00BC007F01200066E0650D8A48FEF51
:1009180004F091EF04F094EF04F07F827E8E7988E2
:100928000604D8A49AEF04F09CEF04F09FEF04F0BB
:100938007F827E9E7998020E0618D8A4A6EF04F04E
:10094800A8EF04F0ABEF04F07F927E8E7998030E47
:100958000618D8A4B2EF04F0B4EF04F0B7EF04F02F
:100968007F927E9E798812005AEC06F0520E4AEC6D
:1009780006F0B60E4AEC06F050EC06F0530E4AECC0
:1009880006F0010E30EC05F00C6E0C500F6E106A7C
:10099800000E30EC05F00C6E0C500E6E0D6A0F5008
:1009A8000D100F6E10500E10106E55EC06F00FC0A3
:1009B8000AF010C00BF012005AEC06F0520E4AEC86
:1009C80006F0B80E4AEC06F050EC06F0530E4AEC6E
:1009D80006F0010E30EC05F00C6E0C500F6E106A2C
:1009E800000E30EC05F00C6E0C500E6E0D6A0F50B8
:1009F8000D100F6E10500E10106E55EC06F00FC053
:100A08000AF010C00BF012005AEC06F0520E4AEC35
:100A180006F0BA0E4AEC06F050EC06F0530E4AEC1B
:100A280006F0010E30EC05F00C6E0C500F6E106ADB
:100A3800000E30EC05F00C6E0C500E6E0D6A0F5067
:100A48000D100F6E10500E10106E55EC06F00FC002
:100A58000AF010C00BF01200086EFCEC05F00E0155
:100A6800DA87FCEC05F0D5CE09F0FCEC05F008506F
:100A7800D8B441EF05F045EF05F0076A072A46EFBD
:100A880005F0076A073A07460E01DA510718DF0B27
:100A98000718DA6FDA8909501200BE0EF66E0C0ECE
:100AA800F76E000EF86E0900F5CF54F00900F5CF87
:100AB80055F00900F5CF56F000EE60F0A00EEE6A92
:100AC800E806FDE100EE38F01C0EEE6AE806FDE1EE
:100AD800579057920001FEEF02F07CEF05F007C037
:100AE800D9FF08C0DAFFDF50D2EC05F0074A082A20
:100AF80007C0D9FF08C0DAFFDF50D8A486EF05F099
:100B080088EF05F073EF05F0010E526E0E012D858A
:100B18001200BDEC05F0010E086E000E10EC06F098
:100B28003F0E0A6E550EE82EFED70A2EFCD700F0AF
:100B3800030E086E000E10EC06F0D50E086E010EBE
:100B480010EC06F01200630E4E64ADEF05F0AFEF47
:100B580005F0B1EF05F0000E4E6E4E2A4E04016E00
:100B6800026A600E0124D96E000E0220DA6EDF5090
:100B780012000E01D951F00B0809D96FD98B9F0EBD
:100B8800D66F848A848CA79BA79D1D0E1D6F1E0E91
:100B98001C6F1C0E6F6F1B0E706F1200066E630EBB
:100BA8004F64D9EF05F0DBEF05F0DDEF05F0000E3F
:100BB8004F6E600E4F24D96EDA6A000EDA2206C034
:100BC800DFFF4F2A1200016E130E5164EEEF05F09D
:100BD800F0EF05F0F2EF05F0000E516E380E5124DB
:100BE800D96EDA6A000EDA2201C0DFFF512A12003C
:100BF8000E01D8B502EF06F004EF06F0FCEF05F0A1
:100C0800DACE06F01F0E0616D8A40DEF06F00FEF89
:100C180006F0FCEF05F01200096E5AEC06F0520ED1
:100C28004AEC06F0095080094AEC06F008504AECF4
:100C380006F055EC06F01200120E0E01626F110E4E
:100C4800156FE997E895330EE56F000EE66FE789B3
:100C5800E88BE78F12004E504F18D8A436EF06F0F5
:100C680039EF06F0010E3AEF06F0000E1200F28C92
:100C7800F28A0E012D872D95298BF28E120087920C
:100C8800869E81987F927E9E79981200076EFCEC72
:100C980005F007C0D5FE1200FCEC05F00E01DA8362
:100CA8001200FCEC05F00E01DA851200FCEC05F0F0
:090CB8000E01DA811200300A007D
:020000040020DA
:10000000FF0FFF0FFF0FFF0FFF0FFF0FFF0FFF0F80
:020000040030CA
:0C000000AAFFFFFF9FFFFFFFFFFFFFFFB5
:00000001FF
