:0400000054EF00F0C9
:100008004A82D9CF04F0DACF05F00E0137B50FEFE9
:1000180000F012EF00F0010E13EF00F0000E48148C
:100028000009D8B41AEF00F01CEF00F03FEF00F021
:1000380002EC06F00E01E46F8AEC06F00009D8A481
:1000480028EF00F02AEF00F02EEF00F00E012D95BA
:10005800000E486E7CAE33EF00F037EF00F0036A15
:10006800032A38EF00F0036A033203327C50031886
:100078007F0B03187C6E0E0137A745EF00F047EFA2
:1000880000F04EEF00F0E3CE06F0065042EC06F02A
:10009800010E496E05C0DAFF04C0D9FF4A9211006B
:1000A8006CEF05F0000E136E000E126E1CC014F0FB
:1000B8001DC015F04EEC04F020EE04F01C50D926BB
:1000C8001D50DA22DECF09F0DDCF0AF01CC0D9FFBF
:1000D8001DC0DAFFDECF07F0DDCF08F08AEC04F0B0
:1000E80007C00EF008C00FF0106A116A000E2BEC62
:1000F80002F00EC024F00FC025F010C026F011C089
:1001080027F020EE02F01C50D9261D50DA22DECF4F
:1001180009F0DDCF0AF01CC0D9FF1DC0DAFFDECF21
:1001280007F0DDCF08F08AEC04F007C00EF008C035
:100138000FF0106A116A000E2BEC02F00EC028F0C6
:100148000FC029F010C02AF011C02BF020EE02F0E9
:100158001C50D9261D50DA22DECF09F0DDCF0AF077
:1001680020EE04F01C50D9261D50DA22DECF07F00D
:10017800DDCF08F08AEC04F007C00EF008C00FF0DD
:10018800106A116A000E2BEC02F00EC020F00FC0AE
:1001980021F010C022F011C023F0330E076E330E89
:1001A800086E330E096E3F0E0A6E24C00BF025C090
:1001B8000CF026C00DF027C00EF0CCEC03F0D8B040
:1001C800E8EF00F0EAEF00F07EEF01F024C007F05E
:1001D80025C008F026C009F027C00AF0330E0B6EC0
:1001E800330E0C6EB30E0D6E3F0E0E6ECCEC03F09C
:1001F800D8B001EF01F003EF01F07EEF01F0330E0C
:10020800076E330E086E330E096E3F0E0A6E28C055
:100218000BF029C00CF02AC00DF02BC00EF0CCEC6E
:1002280003F0D8B01AEF01F01CEF01F07EEF01F0F7
:1002380028C007F029C008F02AC009F02BC00AF02E
:10024800330E0B6E330E0C6EB30E0D6E3F0E0E6E2C
:10025800CCEC03F0D8B033EF01F035EF01F07EEFCE
:1002680001F0330E076E330E086E330E096E3F0E23
:100278000A6E20C00BF021C00CF022C00DF023C084
:100288000EF0CCEC03F0D8B04CEF01F04EEF01F0DB
:100298007EEF01F020C007F021C008F022C009F06D
:1002A80023C00AF0330E0B6E330E0C6EB30E0D6EB8
:1002B8003F0E0E6ECCEC03F0D8B065EF01F067EF9F
:1002C80001F07EEF01F020EE04F01C50D9261D50FD
:1002D800DA22A10EDE5C0F0EDE58D8A076EF01F010
:1002E80078EF01F07BEF01F0070E2AEF02F0020E23
:1002F8002AEF02F0CD0E076ECC0E086ECC0E096EFA
:100308003F0E0A6E24C00BF025C00CF026C00DF07D
:1003180027C00EF0CCEC03F0D8B095EF01F097EFC2
:1003280001F00DEF02F0CD0E076ECC0E086ECC0E6C
:10033800096E3F0E0A6E28C00BF029C00CF02AC0C7
:100348000DF02BC00EF0CCEC03F0D8B0AEEF01F0FE
:10035800B0EF01F00DEF02F0000E136E020E126EF8
:100368001CC014F01DC015F04EEC04F020EE04F093
:100378001C50D9261D50DA22E90EDE5C030EDE5829
:10038800D8A0C9EF01F0CBEF01F0CEEF01F0040ED9
:100398002AEF02F0000E136E030E126E1CC014F04A
:1003A8001DC015F04EEC04F020EE02F01C50D926CA
:1003B8001D50DA227D0EDE5C150EDE58D8A0E7EF60
:1003C80001F0E9EF01F0ECEF01F0050E2AEF02F081
:1003D800000E136E030E126E1CC014F01DC015F033
:1003E8004EEC04F020EE02F01C50D9261D50DA2203
:1003F800D10EDE5C070EDE58D8A005EF02F007EF3D
:1004080002F00AEF02F0060E2AEF02F0010E2AEFC0
:1004180002F0000E136E010E126E1CC014F01DC007
:1004280015F04EEC04F01CC0D9FF1DC0DAFFE90E30
:10043800DE5C030EDE58D8A024EF02F026EF02F0AF
:1004480029EF02F0000E2AEF02F0030E1200166EDA
:100458001650D8B432EF02F034EF02F056EF02F043
:1004680011BE3BEF02F039EF02F056EF02F00EC07A
:1004780012F00FC013F010C014F011C015F0121EC6
:10048800131E141E151E122A000E132214221522E2
:1004980012C018F013C019F014C01AF015C01BF0E0
:1004A8005EEF02F00EC018F00FC019F010C01AF07D
:1004B80011C01BF00E500F1010101110D8A467EFC8
:1004C80002F069EF02F073EF02F0000E0E6E000EFC
:1004D8000F6E000E106E000E116E04EF03F0960EF4
:1004E800176E7DEF02F0172AD8901B321A32193294
:1004F8001832000E1814126E000E1914136E000E26
:100508001A14146EFE0E1B14156E125013101410CC
:100518001510D8A492EF02F094EF02F077EF02F0F2
:10052800A2EF02F0172A010E1826000E19221A222D
:100538001B22D8901B321A3219321832000E1814A6
:10054800126E000E1914136E000E1A14146EFF0E9C
:100558001B14156E1250131014101510D8A4B7EFF1
:1005680002F0B9EF02F096EF02F0C1EF02F01706C1
:10057800D890183619361A361B361ABEC6EF02F04E
:10058800C8EF02F0D0EF02F0020E1760CEEF02F0D3
:10059800D0EF02F0BBEF02F017B0D5EF02F0D7EFC3
:1005A80002F0D8EF02F01A9ED890173217C012F056
:1005B800136A146A156A12C015F0146A136A126A6B
:1005C800125018121350191214501A1215501B12E7
:1005D8001650D8B4F2EF02F0F4EF02F0FCEF02F09C
:1005E80011BEFBEF02F0F9EF02F0FCEF02F01B8EF8
:1005F80018C00EF019C00FF01AC010F01BC011F08F
:1006080012007BEC06F096EC06F0E8EC05F09EECA8
:1006180006F0000EC4EC04F0AB0E1C6E000E1D6E4E
:1006280056EC00F00001B16FB151D8A41EEF03F0F1
:1006380020EF03F029EF03F020EED5F010EE7CF068
:10064800060EDBCFE3FFE806FCE2B105D8A42FEFE6
:1006580003F031EF03F03AEF03F020EEE8F010EE8C
:10066800A5F0040EDBCFE3FFE806FCE2020EB119A9
:10067800D8A441EF03F043EF03F04CEF03F020EE72
:10068800E2F010EE99F0050EDBCFE3FFE806FCE29E
:10069800030EB119D8A453EF03F055EF03F05EEF42
:1006A80003F020EECEF010EE83F0060EDBCFE3FF72
:1006B800E806FCE2040EB119D8A465EF03F067EF71
:1006C80003F070EF03F020EEDCF010EE9FF0050E63
:1006D800DBCFE3FFE806FCE2050EB119D8A477EFFB
:1006E80003F079EF03F082EF03F020EEC6F010EE8E
:1006F8006CF0070EDBCFE3FFE806FCE2060EB1194B
:10070800D8A489EF03F08BEF03F094EF03F020EE09
:10071800BEF010EE74F0070EDBCFE3FFE806FCE254
:10072800070EB119D8A49BEF03F09DEF03F0A6EFD5
:1007380003F020EEB2F010EE60F00B0EDBCFE3FF1B
:10074800E806FCE28A0E086E000E096ECCEC05F095
:10075800000EC4EC04F0000E0001AA6F4A0E2D6EC4
:100768000E0E2C6E190EE82EFED72C2EFCD72D2E31
:10077800FAD700F00001AA2B020EAA65C6EF03F013
:10078800C8EF03F0B2EF03F00DEF03F054EF00F001
:10079800000E07140F6E000E0814106E800E091458
:1007A800116E7F0E0A14126E0F50101011101210D5
:1007B800D8A4E1EF03F0E3EF03F0EBEF03F0000E52
:1007C800076E000E086E000E096E000E0A6E000E0F
:1007D8000B140F6E000E0C14106E800E0D14116E9B
:1007E8007F0E0E14126E0F50101011101210D8A494
:1007F80000EF04F002EF04F00AEF04F0000E0B6EB5
:10080800000E0C6E000E0D6E000E0E6E0AAE0FEF8F
:1008180004F011EF04F01AEF04F0076C081ED8B0CA
:10082800082A091ED8B0092A800E0A560EAE1FEFF4
:1008380004F021EF04F02AEF04F00B6C0C1ED8B082
:100848000C2A0D1ED8B00D2A800E0E56000E071A5F
:10085800000E081A000E091A800E0A1A000E0B1A4A
:10086800000E0C1A000E0D1A800E0E1A0B50075CA3
:100878000C5008580D5009580E500A58D8B047EF78
:1008880004F049EF04F04CEF04F0D8904DEF04F079
:10089800D88012001250C4EC04F04A0E176E0E0EE7
:1008A800166E190EE82EFED7162EFCD7172EFAD77D
:1008B80000F012041310D8A464EF04F066EF04F0FB
:1008C80067EF04F07E8EF4EC04F014C0D9FF15C075
:1008D800DAFF0BC0DEFF0CC0DDFF44EC05F020EEB4
:1008E80004F01450D9261550DA220BC0DEFF0CC0D4
:1008F800DDFF1CEC05F020EE02F01450D92615504F
:10090800DA220BC0DEFF0CC0DDFF1200000E0C6EF9
:10091800000E0B6E09500A10D8B495EF04F097EF4B
:1009280004F0BFEF04F0010E0D6E9FEF04F0D890B5
:1009380009360A360D2A0AAEA4EF04F0A6EF04F031
:100948009BEF04F0D8900B360C360950075C0A5020
:100958000858D8A0B2EF04F0B4EF04F0B9EF04F0EF
:100968000950075E0A50085A0B80D8900A3209329B
:100978000D2EA6EF04F00BC007F00CC008F0120013
:10098800076E0750D8A4CBEF04F0CDEF04F0D0EFFA
:1009980004F07F827E8E79880704D8A4D6EF04F00D
:1009A800D8EF04F0DBEF04F07F827E9E7998020E88
:1009B8000718D8A4E2EF04F0E4EF04F0E7EF04F03E
:1009C8007F927E8E7998030E0718D8A4EEEF04F074
:1009D800F0EF04F0F3EF04F07F927E9E7988120026
:1009E800B5EC06F0520EA5EC06F0B60EA5EC06F036
:1009F800ABEC06F0530EA5EC06F0010E8DEC05F0FD
:100A08000D6E0D50106E116A000E8DEC05F00D6E16
:100A18000D500F6E0E6A10500E10106E11500F1000
:100A2800116EB0EC06F010C00BF011C00CF0120003
:100A3800B5EC06F0520EA5EC06F0B80EA5EC06F0E3
:100A4800ABEC06F0530EA5EC06F0010E8DEC05F0AC
:100A58000D6E0D50106E116A000E8DEC05F00D6EC6
:100A68000D500F6E0E6A10500E10106E11500F10B0
:100A7800116EB0EC06F010C00BF011C00CF01200B3
:100A8800B5EC06F0520EA5EC06F0BA0EA5EC06F091
:100A9800ABEC06F0530EA5EC06F0010E8DEC05F05C
:100AA8000D6E0D50106E116A000E8DEC05F00D6E76
:100AB8000D500F6E0E6A10500E10106E11500F1060
:100AC800116EB0EC06F010C00BF011C00CF0120063
:100AD8005C0EF66E0B0EF76E000EF86E00EEB2F0BE
:100AE80010EE3BF00900F5CFEEFFE550E150FAE1DA
:100AF80001EE00F0A00EEE6AE806FDE100EE2EF031
:100B08001C0EEE6AE806FDE14A904A92000105EFE4
:100B180003F0096E57EC06F00E01DA8757EC06F081
:100B2800D5CE0AF057EC06F00950D8B49EEF05F080
:100B3800A2EF05F0086A082AA3EF05F0086A083A48
:100B480008460E01DA510818DF0B0818DA6FDA893F
:100B58000A5012006C6967687420626C7565200021
:100B68006F72616E6765200079656C6C6F77200025
:100B7800677265656E200077686974652000706922
:0F0B88006E6B2000626C75652000726564200042
:100B9800D7EF05F008C0D9FF09C0DAFFDF502DEC08
:100BA80006F0084A092A08C0D9FF09C0DAFFDF5051
:100BB800D8A4E1EF05F0E3EF05F0CEEF05F0010E64
:100BC800486E0E012D85120018EC06F0010E096E14
:100BD800000E6BEC06F03F0E0B6E550EE82EFED79E
:100BE8000B2EFCD700F0030E096E000E6BEC06F01E
:100BF800D50E096E010E6BEC06F01200630E44640C
:100C080008EF06F00AEF06F00CEF06F0000E446E4F
:100C1800442A4404016E026A000E0124D96E010EB2
:100C28000220DA6EDF5012000E01D951F00B0809CC
:100C3800D96FD98B9F0ED66F848A848CA79BA79D6A
:100C48001D0E1D6F1E0E1C6F1C0E6F6F1B0E706F1E
:100C58001200076E630E456434EF06F036EF06F0B7
:100C680038EF06F0000E456E000E4524D96EDA6A9C
:100C7800010EDA2207C0DFFF452A1200016E130EAB
:100C8800476449EF06F04BEF06F04DEF06F0000E13
:100C9800476E2E0E4724D96EDA6A000EDA2201C09A
:100CA800DFFF472A12000E01D8B55DEF06F05FEFAF
:100CB80006F057EF06F0DACE07F01F0E0716D8A495
:100CC80068EF06F06AEF06F057EF06F012000A6EBA
:100CD800B5EC06F0520EA5EC06F00A508009A5EC1A
:100CE80006F00950A5EC06F0B0EC06F01200120E62
:100CF8000E01626F110E156FE997E895330EE56FD7
:100D0800000EE66FE789E88BE78F1200445045181C
:100D1800D8A491EF06F094EF06F0010E95EF06F0D7
:100D2800000E1200F28CF28A0E012D872D95298B68
:100D3800F28E12008792869E81987F927E9E799885
:100D48001200086E57EC06F008C0D5FE120057ECEA
:100D580006F00E01DA83120057EC06F00E01DA8570
:0C0D6800120057EC06F00E01DA811200B8
:020000040020DA
:10000000FF0FFF0FFF0FFF0FFF0FFF0FFF0FFF0F80
:020000040030CA
:0C000000AAFFFFFF9FFFFFFFFFFFFFFFB5
:00000001FF
