:0400000042EF00F0DB
:100008004982D9CF03F0DACF04F00E0137B50FEFEC
:1000180000F012EF00F0010E13EF00F0000E47148D
:100028000009D8B41AEF00F01CEF00F02EEF00F032
:1000380078EC06F00009D8A424EF00F026EF00F0D1
:100048002AEF00F00E012D95000E476EF0EC05F03A
:100058000E01E46F37A733EF00F035EF00F03CEF07
:1000680000F0E3CE05F0055030EC06F0010E486EC6
:1000780004C0DAFF03C0D9FF499211005AEF05F016
:10008800000E126E000E116E1BC013F01CC014F08F
:100098003CEC04F020EE04F01B50D9261C50DA2268
:1000A800DECF08F0DDCF09F01BC0D9FF1CC0DAFF96
:1000B800DECF06F0DDCF07F078EC04F006C00DF0D7
:1000C80007C00EF00F6A106A000E19EC02F00DC09E
:1000D80023F00EC024F00FC025F010C026F020EE4B
:1000E80002F01B50D9261C50DA22DECF08F0DDCFF3
:1000F80009F01BC0D9FF1CC0DAFFDECF06F0DDCF48
:1001080007F078EC04F006C00DF007C00EF00F6A97
:10011800106A000E19EC02F00DC027F00EC028F08E
:100128000FC029F010C02AF020EE02F01B50D9268B
:100138001C50DA22DECF08F0DDCF09F020EE04F003
:100148001B50D9261C50DA22DECF06F0DDCF07F08F
:1001580078EC04F006C00DF007C00EF00F6A106AC4
:10016800000E19EC02F00DC01FF00EC020F00FC0F9
:1001780021F010C022F0330E066E330E076E330ED8
:10018800086E3F0E096E23C00AF024C00BF025C08C
:100198000CF026C00DF0BAEC03F0D8B0D6EF00F0A2
:1001A800D8EF00F06CEF01F023C006F024C007F090
:1001B80025C008F026C009F0330E0A6E330E0B6E08
:1001C800B30E0C6E3F0E0D6EBAEC03F0D8B0EFEF25
:1001D80000F0F1EF00F06CEF01F0330E066E330E15
:1001E800076E330E086E3F0E096E27C00AF028C04E
:1001F8000BF029C00CF02AC00DF0BAEC03F0D8B00F
:1002080008EF01F00AEF01F06CEF01F027C006F0EB
:1002180028C007F029C008F02AC009F0330E0A6E7A
:10022800330E0B6EB30E0C6E3F0E0D6EBAEC03F070
:10023800D8B021EF01F023EF01F06CEF01F0330E9D
:10024800066E330E076E330E086E3F0E096E1FC022
:100258000AF020C00BF021C00CF022C00DF0BAEC5F
:1002680003F0D8B03AEF01F03CEF01F06CEF01F089
:100278001FC006F020C007F021C008F022C009F016
:10028800330E0A6E330E0B6EB30E0C6E3F0E0D6EF0
:10029800BAEC03F0D8B053EF01F055EF01F06CEF72
:1002A80001F020EE04F01B50D9261C50DA22A10ED2
:1002B800DE5C0F0EDE58D8A064EF01F066EF01F0A7
:1002C80069EF01F0070E18EF02F0020E18EF02F0C6
:1002D800CD0E066ECC0E076ECC0E086E3F0E096E64
:1002E80023C00AF024C00BF025C00CF026C00DF086
:1002F800BAEC03F0D8B083EF01F085EF01F0FBEF23
:1003080001F0CD0E066ECC0E076ECC0E086E3F0EB9
:10031800096E27C00AF028C00BF029C00CF02AC0CB
:100328000DF0BAEC03F0D8B09CEF01F09EEF01F0AD
:10033800FBEF01F0000E126E020E116E1BC013F0DF
:100348001CC014F03CEC04F020EE04F01B50D9263D
:100358001C50DA22E90EDE5C030EDE58D8A0B7EF97
:1003680001F0B9EF01F0BCEF01F0040E18EF02F054
:10037800000E126E030E116E1BC013F01CC014F099
:100388003CEC04F020EE02F01B50D9261C50DA2277
:100398007D0EDE5C150EDE58D8A0D5EF01F0D7EF44
:1003A80001F0DAEF01F0050E18EF02F0000E126E00
:1003B800030E116E1BC013F01CC014F03CEC04F0CB
:1003C80020EE02F01B50D9261C50DA22D10EDE5C3A
:1003D800070EDE58D8A0F3EF01F0F5EF01F0F8EFC3
:1003E80001F0060E18EF02F0010E18EF02F0000EF1
:1003F800126E010E116E1BC013F01CC014F03CEC01
:1004080004F01BC0D9FF1CC0DAFFE90EDE5C030E46
:10041800DE58D8A012EF02F014EF02F017EF02F046
:10042800000E18EF02F0030E1200156E1550D8B426
:1004380020EF02F022EF02F044EF02F010BE29EFA5
:1004480002F027EF02F044EF02F00DC011F00EC0E9
:1004580012F00FC013F010C014F0111E121E131E5C
:10046800141E112A000E12221322142211C017F092
:1004780012C018F013C019F014C01AF04CEF02F0B3
:100488000DC017F00EC018F00FC019F010C01AF008
:100498000D500E100F101010D8A455EF02F057EFA2
:1004A80002F061EF02F0000E0D6E000E0E6E000EEF
:1004B8000F6E000E106EF2EF02F0960E166E6BEFD6
:1004C80002F0162AD8901A32193218321732000E52
:1004D8001714116E000E1814126E000E1914136EF4
:1004E800FE0E1A14146E1150121013101410D8A402
:1004F80080EF02F082EF02F065EF02F090EF02F079
:10050800162A010E1726000E182219221A22D89030
:100518001A32193218321732000E1714116E000EE3
:100528001814126E000E1914136EFF0E1A14146E9E
:100538001150121013101410D8A4A5EF02F0A7EF51
:1005480002F084EF02F0AFEF02F01606D8901736EB
:10055800183619361A3619BEB4EF02F0B6EF02F0A3
:10056800BEEF02F0020E1660BCEF02F0BEEF02F022
:10057800A9EF02F016B0C3EF02F0C5EF02F0C6EF24
:1005880002F0199ED890163216C011F0126A136A3A
:10059800146A11C014F0136A126A116A1150171202
:1005A800125018121350191214501A121550D8B4A8
:1005B800E0EF02F0E2EF02F0EAEF02F010BEE9EF3E
:1005C80002F0E7EF02F0EAEF02F01A8E17C00DF022
:1005D80018C00EF019C00FF01AC010F0120069EC24
:1005E80006F084EC06F0D6EC05F08CEC06F0000E74
:1005F800B2EC04F0AB0E1B6E000E1C6E44EC00F067
:100608000001B16FB151D8A40CEF03F00EEF03F065
:1006180017EF03F020EED5F010EE7CF0060EDBCFDE
:10062800E3FFE806FCE2B105D8A41DEF03F01FEFD5
:1006380003F028EF03F020EEE8F010EEA5F0040E2A
:10064800DBCFE3FFE806FCE2020EB119D8A42FEFD6
:1006580003F031EF03F03AEF03F020EEE2F010EE92
:1006680099F0050EDBCFE3FFE806FCE2030EB119B3
:10067800D8A441EF03F043EF03F04CEF03F020EE72
:10068800CEF010EE83F0060EDBCFE3FFE806FCE2C7
:10069800040EB119D8A453EF03F055EF03F05EEF41
:1006A80003F020EEDCF010EE9FF0050EDBCFE3FF49
:1006B800E806FCE2050EB119D8A465EF03F067EF70
:1006C80003F070EF03F020EEC6F010EE6CF0070EAA
:1006D800DBCFE3FFE806FCE2060EB119D8A477EFFA
:1006E80003F079EF03F082EF03F020EEBEF010EE96
:1006F80074F0070EDBCFE3FFE806FCE2070EB11942
:10070800D8A489EF03F08BEF03F094EF03F020EE09
:10071800B2F010EE60F00B0EDBCFE3FFE806FCE270
:100728008A0E076E000E086EBAEC05F0000EB2ECE9
:1007380004F0000E0001AA6F4A0E2C6E0E0E2B6EEE
:10074800190EE82EFED72B2EFCD72C2EFAD700F048
:100758000001AA2B020EAA65B4EF03F0B6EF03F06E
:10076800A0EF03F0FBEF02F042EF00F0000E0614DA
:100778000E6E000E07140F6E800E0814106E7F0E9A
:100788000914116E0E500F1010101110D8A4CFEFCD
:1007980003F0D1EF03F0D9EF03F0000E066E000E60
:1007A800076E000E086E000E096E000E0A140E6E1B
:1007B800000E0B140F6E800E0C14106E7F0E0D14AD
:1007C800116E0E500F1010101110D8A4EEEF03F098
:1007D800F0EF03F0F8EF03F0000E0A6E000E0B6E58
:1007E800000E0C6E000E0D6E09AEFDEF03F0FFEF6C
:1007F80003F008EF04F0066C071ED8B0072A081E9D
:10080800D8B0082A800E09560DAE0DEF04F00FEF90
:1008180004F018EF04F00A6C0B1ED8B00B2A0C1E5B
:10082800D8B00C2A800E0D56000E061A000E071AB4
:10083800000E081A800E091A000E0A1A000E0B1A6A
:10084800000E0C1A800E0D1A0A50065C0B50075841
:100858000C5008580D500958D8B035EF04F037EF50
:1008680004F03AEF04F0D8903BEF04F0D88012007F
:100878001150B2EC04F04A0E166E0E0E156E190EDB
:10088800E82EFED7152EFCD7162EFAD700F0110445
:100898001210D8A452EF04F054EF04F055EF04F00E
:1008A8007E8EE2EC04F013C0D9FF14C0DAFF0AC050
:1008B800DEFF0BC0DDFF32EC05F020EE04F0135034
:1008C800D9261450DA220AC0DEFF0BC0DDFF0AEC7D
:1008D80005F020EE02F01350D9261450DA220AC08F
:1008E800DEFF0BC0DDFF1200000E0B6E000E0A6E5D
:1008F80008500910D8B483EF04F085EF04F0ADEF89
:1009080004F0010E0C6E8DEF04F0D890083609360D
:100918000C2A09AE92EF04F094EF04F089EF04F08A
:10092800D8900A360B360850065C09500758D8A0EC
:10093800A0EF04F0A2EF04F0A7EF04F00850065E61
:100948000950075A0A80D890093208320C2E94EFC1
:1009580004F00AC006F00BC007F01200066E06503D
:10096800D8A4B9EF04F0BBEF04F0BEEF04F07F8227
:100978007E8E79880604D8A4C4EF04F0C6EF04F08C
:10098800C9EF04F07F827E9E7998020E0618D8A4DB
:10099800D0EF04F0D2EF04F0D5EF04F07F927E8E12
:1009A8007998030E0618D8A4DCEF04F0DEEF04F003
:1009B800E1EF04F07F927E9E79881200A3EC06F0A6
:1009C800520E93EC06F0B60E93EC06F099EC06F096
:1009D800530E93EC06F0010E7BEC05F00C6E0C50F8
:1009E8000F6E106A000E7BEC05F00C6E0C500E6E4C
:1009F8000D6A0F500D100F6E10500E10106E9EECF9
:100A080006F00FC00AF010C00BF01200A3EC06F0BD
:100A1800520E93EC06F0B80E93EC06F099EC06F043
:100A2800530E93EC06F0010E7BEC05F00C6E0C50A7
:100A38000F6E106A000E7BEC05F00C6E0C500E6EFB
:100A48000D6A0F500D100F6E10500E10106E9EECA8
:100A580006F00FC00AF010C00BF01200A3EC06F06D
:100A6800520E93EC06F0BA0E93EC06F099EC06F0F1
:100A7800530E93EC06F0010E7BEC05F00C6E0C5057
:100A88000F6E106A000E7BEC05F00C6E0C500E6EAB
:100A98000D6A0F500D100F6E10500E10106E9EEC58
:100AA80006F00FC00AF010C00BF01200380EF66EF8
:100AB8000B0EF76E000EF86E00EEB2F010EE3BF083
:100AC8000900F5CFEEFFE550E150FAE101EE00F044
:100AD800A00EEE6AE806FDE100EE2DF01C0EEE6AAF
:100AE800E806FDE1499049920001F3EF02F0086E33
:100AF80045EC06F00E01DA8745EC06F0D5CE09F094
:100B080045EC06F00850D8B48CEF05F090EF05F0EE
:100B1800076A072A91EF05F0076A073A07460E01A8
:100B2800DA510718DF0B0718DA6FDA890950120053
:100B38006C6967687420626C756520006F72616EFD
:100B48006765200079656C6C6F7720006772656552
:100B58006E20007768697465200070696E6B2000EC
:0B0B6800626C7565200072656420005F
:100B7400C5EF05F007C0D9FF08C0DAFFDF501BEC52
:100B840006F0074A082A07C0D9FF08C0DAFFDF5079
:100B9400D8A4CFEF05F0D1EF05F0BCEF05F0010EBE
:100BA400476E0E012D85120006EC06F0010E086E4C
:100BB400000E59EC06F03F0E0A6E550EE82EFED7D5
:100BC4000A2EFCD700F0030E086E000E59EC06F056
:100BD400D50E086E010E59EC06F01200630E436444
:100BE400F6EF05F0F8EF05F0FAEF05F0000E436EAE
:100BF400432A4304016E026A000E0124D96E010ED9
:100C04000220DA6EDF5012000E01D951F00B0809F0
:100C1400D96FD98B9F0ED66F848A848CA79BA79D8E
:100C24001D0E1D6F1E0E1C6F1C0E6F6F1B0E706F42
:100C34001200066E630E446422EF06F024EF06F001
:100C440026EF06F0000E446E000E4424D96EDA6AD4
:100C5400010EDA2206C0DFFF442A1200016E130ED1
:100C6400466437EF06F039EF06F03BEF06F0000E6E
:100C7400466E2D0E4624D96EDA6A000EDA2201C0C1
:100C8400DFFF462A12000E01D8B54BEF06F04DEFF8
:100C940006F045EF06F0DACE06F01F0E0616D8A4CD
:100CA40056EF06F058EF06F045EF06F01200096E15
:100CB400A3EC06F0520E93EC06F00950800993EC75
:100CC40006F0085093EC06F09EEC06F01200120EAB
:100CD4000E01626F110E156FE997E895330EE56FFB
:100CE400000EE66FE789E88BE78F12004350441843
:100CF400D8A47FEF06F082EF06F0010E83EF06F032
:100D0400000E1200F28CF28A0E012D872D95298B8C
:100D1400F28E12008792869E81987F927E9E7998A9
:100D24001200076E45EC06F007C0D5FE120045EC34
:100D340006F00E01DA83120045EC06F00E01DA85A6
:0C0D4400120045EC06F00E01DA811200EE
:020000040020DA
:10000000FF0FFF0FFF0FFF0FFF0FFF0FFF0FFF0F80
:020000040030CA
:0C000000AAFFFFFF9FFFFFFFFFFFFFFFB5
:00000001FF
