:040000004DEF00F0D0
:100008005282D9CF03F0DACF04F00E0137B50FEFE3
:1000180000F012EF00F0010E13EF00F0000E4D1487
:100028000009D8B41AEF00F01CEF00F038EF00F028
:100038002AEC09F00009D8A424EF00F026EF00F01C
:100048002AEF00F00E012D95000E4D6E2AEC09F0F6
:100058000009D8B432EF00F034EF00F038EF00F0C8
:10006800A2EC08F00E01E46F0E0137A73EEF00F096
:1000780040EF00F047EF00F0E3CE05F00550E2EC6A
:1000880008F0010E4E6E04C0DAFF03C0D9FF529289
:10009800110025EF08F0000E126E000E116E39C027
:1000A80013F03AC014F041EC07F020EE04F0395098
:1000B800D9263A50DA22DECF3BF0DDCF3CF020EEF5
:1000C80002F03950D9263A50DA22DECF3DF0DDCFA2
:1000D8003EF039C0D9FF3AC0DAFFDECF3FF0DDCFBE
:1000E80040F03D503F24416E3E504020426E3B5010
:1000F8004124436E3C504220446EE80E435C030E9C
:100108004458D8B08AEF00F08CEF00F08FEF00F081
:10011800080E2FEF03F039C0D9FF3AC0DAFFDECF5F
:100128003BF0DDCF3CF03BC006F03CC007F0086A6E
:10013800096A000E45EC05F006C02DF007C02EF048
:1001480008C02FF009C030F0660E186E660E196EE2
:10015800A60E1A6E3F0E1B6E20EE02F03950D926FD
:100168003A50DA22DECF3DF0DDCF3EF03DC006F05A
:100178003EC007F0086A096A000E45EC05F006C0A3
:1001880014F007C015F008C016F009C017F030ECDD
:1001980003F014C031F015C032F016C033F017C0A8
:1001A80034F0BFEC06F0D8B0DCEF00F0DEEF00F082
:1001B80030EF01F039C0D9FF3AC0DAFFDECF3BF0AB
:1001C800DDCF3CF03BC006F03CC007F0086A096A86
:1001D800000E45EC05F006C02DF007C02EF008C053
:1001E8002FF009C030F0660E186E660E196EA60E56
:1001F8001A6E3F0E1B6E20EE04F03950D9263A5085
:10020800DA22DECF3DF0DDCF3EF03DC006F03EC045
:1002180007F0086A096A000E45EC05F006C014F0FC
:1002280007C015F008C016F009C017F030EC03F04D
:1002380014C031F015C032F016C033F017C034F0D6
:10024800BFEC06F0D8B02BEF01F02DEF01F030EF46
:1002580001F0020E2FEF03F039C0D9FF3AC0DAFFE0
:10026800DECF3BF0DDCF3CF03BC006F03CC007F0F2
:10027800086A096A000E45EC05F006C02DF007C0B3
:100288002EF008C02FF009C030F0CD0E186ECC0E3D
:10029800196ECC0E1A6E3F0E1B6E20EE02F039500E
:1002A800D9263A50DA22DECF3DF0DDCF3EF03DC010
:1002B80006F03EC007F0086A096A000E45EC05F032
:1002C80006C014F007C015F008C016F009C017F0F2
:1002D80030EC03F014C031F015C032F016C033F022
:1002E80017C034F0BFEC06F0D8B07DEF01F07FEF17
:1002F80001F0D1EF01F039C0D9FF3AC0DAFFDECF03
:100308003BF0DDCF3CF03BC006F03CC007F0086A8C
:10031800096A000E45EC05F006C02DF007C02EF066
:1003280008C02FF009C030F0CD0E186ECC0E196E33
:10033800CC0E1A6E3F0E1B6E20EE04F03950D926F3
:100348003A50DA22DECF3DF0DDCF3EF03DC006F078
:100358003EC007F0086A096A000E45EC05F006C0C1
:1003680014F007C015F008C016F009C017F030ECFB
:1003780003F014C031F015C032F016C033F017C0C6
:1003880034F0BFEC06F0D8B0CCEF01F0CEEF01F0BE
:10039800D1EF01F0070E2FEF03F020EE02F03950F5
:1003A800D9263A50DA2239C0E1FF3AC0E2FFDE50DE
:1003B800E65CDE50E658D8B0E4EF01F0E6EF01F075
:1003C800E9EF01F0030E2FEF03F0CD0E186ECC0EFF
:1003D800196ECC0E1A6E3F0E1B6E20EE04F03950CB
:1003E800D9263A50DA22DECF3BF0DDCF3CF03BC0D5
:1003F80006F03CC007F0086A096A000E45EC05F0F3
:1004080006C014F007C015F008C016F009C017F0B0
:1004180030EC03F014C02DF015C02EF016C02FF0EC
:1004280017C030F039C0D9FF3AC0DAFFDECF3DF04F
:10043800DDCF3EF03DC006F03EC007F0086A096A0D
:10044800000E45EC05F006C031F007C032F008C0D8
:1004580033F009C034F0BFEC06F0D8B036EF02F044
:1004680038EF02F02EEF03F0CD0E186ECC0E196E99
:10047800CC0E1A6E3F0E1B6E20EE02F03950D926B4
:100488003A50DA22DECF3BF0DDCF3CF03BC006F03D
:100498003CC007F0086A096A000E45EC05F006C082
:1004A80014F007C015F008C016F009C017F030ECBA
:1004B80003F014C02DF015C02EF016C02FF017C091
:1004C80030F039C0D9FF3AC0DAFFDECF3DF0DDCFDA
:1004D8003EF03DC006F03EC007F0086A096A000E0B
:1004E80045EC05F006C031F007C032F008C033F023
:1004F80009C034F0BFEC06F0D8B085EF02F087EF02
:1005080002F02EEF03F0000E126E020E116E39C0CB
:1005180013F03AC014F041EC07F020EE04F0395023
:10052800D9263A50DA2239C0E1FF3AC0E2FFE6CFD5
:100538003DF0E5CF3EF0D8903D363E36DE503D5C8E
:10054800DE503E58D8B0ABEF02F0ADEF02F0B0EF9E
:1005580002F0040E2FEF03F0000E126E030E116E60
:1005680039C013F03AC014F041EC07F0330E186E9E
:10057800330E196E730E1A6E400E1B6E39C0D9FFFA
:100588003AC0DAFFDECF3BF0DDCF3CF03BC006F0EF
:100598003CC007F0086A096A000E45EC05F006C081
:1005A80014F007C015F008C016F009C017F030ECB9
:1005B80003F014C02DF015C02EF016C02FF017C090
:1005C80030F020EE02F03950D9263A50DA22DECF48
:1005D8003DF0DDCF3EF03DC006F03EC007F0086AB2
:1005E800096A000E45EC05F006C031F007C032F08C
:1005F80008C033F009C034F0BFEC06F0D8B007EFFC
:1006080003F009EF03F00CEF03F0050E2FEF03F0F2
:1006180020EE02F03950D9263A50DA2239C0E1FFEB
:100628003AC0E2FFE6CF3DF0E5CF3EF0D8903D3648
:100638003E36DE503D5CDE503E58D8B026EF03F023
:1006480028EF03F02BEF03F0060E2FEF03F0010E57
:100658002FEF03F0000E12001750800B206E17507A
:100668001724266E16AE3BEF03F03DEF03F03EEF86
:1006780003F026802650D8B444EF03F046EF03F089
:1006880059EF03F02628D8A44CEF03F04EEF03F0FF
:1006980056EF03F0000E146E000E156E000E166E67
:1006A800000E176E168E61EF03F0000E146E000E2A
:1006B800156E000E166E000E176E1B50800B201A5A
:1006C8001B501B24216E1AAE6CEF03F06EEF03F083
:1006D8006FEF03F021802150D8B475EF03F077EF66
:1006E80003F08AEF03F02128D8A47DEF03F07FEF11
:1006F80003F087EF03F0000E186E000E196E000E5F
:100708001A6E000E1B6E1A8E92EF03F0000E186E12
:10071800000E196E000E1A6E000E1B6E2150D8B412
:1007280098EF03F09AEF03F0A2EF03F02650D8A455
:10073800A0EF03F0A2EF03F0ACEF03F0000E146E8D
:10074800000E156E000E166E000E176E44EF05F0C3
:100758001A501402F3CF2BF0F4CF2CF02B50226E4A
:10076800236A246A256A2C50276E286A296A2A6A0D
:1007780019501502F3CF2BF0F4CF2CF02B50222672
:10078800000E2322242225222C502726000E282260
:1007980029222A2218501602F3CF2BF0F4CF2CF07E
:1007A8002B502226000E2322242225222C502726D5
:1007B800000E282229222A2224C025F023C024F052
:1007C80022C023F0226A18501502F3CF2BF0F4CF81
:1007D8002CF02B5022262C502322000E2422000E0F
:1007E800252219501402F3CF2BF0F4CF2CF02B5004
:1007F80022262C502322000E2422000E252224C05B
:1008080025F023C024F022C023F0226A18501402D5
:10081800F3CF2BF0F4CF2CF02B5022262C50232290
:10082800000E2422000E25221A501502F3CF2BF0B9
:10083800F4CF2CF02B5027262C502822000E2922EA
:10084800000E2A2219501602F3CF2BF0F4CF2CF009
:100858002B5027262C502822000E2922000E2A224F
:100868001A501602F3CF2BF0F4CF2CF02B501C6E3D
:100878002C501D6E1E6A1F6A1EC01FF01DC01EF080
:100888001CC01DF01C6A1C5027261D5028221E5013
:1008980029221F502A2222C01CF023C01DF024C088
:1008A8001EF025C01FF0190E5FEF04F0D8901F321C
:1008B8001E321D321C32E82E5AEF04F01C50272637
:1008C8001D5028221E5029221F502A2224C025F0FC
:1008D80023C024F022C023F0226A215026C01CF035
:1008E8001D6A1C26000E1D22820E1C242B6EFF0E74
:1008F8001D202C6E95EF04F0D8902736283629361F
:100908002A3625AE8AEF04F08CEF04F08DEF04F060
:100918002780D89022362336243625362B06D8A0B1
:100928002C0629AE9AEF04F09CEF04F080EF04F057
:10093800000E216E25AEA3EF04F0A5EF04F0C9EF79
:1009480004F0FF0E22141C6EFF0E23141D6EFF0E02
:1009580024141E6E7F0E25141F6E1C501D101E10B1
:100968001F10D8B4BAEF04F0BCEF04F0C0EF04F0E5
:10097800010E216EC9EF04F027A0C5EF04F0C7EF00
:1009880004F0C9EF04F0BCEF04F02150D8B4CFEF65
:1009980004F0D1EF04F0F5EF04F0010E2726000E65
:1009A800282229222A222AA0DCEF04F0DEEF04F014
:1009B800F5EF04F027C01CF028C01DF029C01EF078
:1009C8002AC01FF01F341F321E321D321C321CC0B9
:1009D80027F01DC028F01EC029F01FC02AF02B4A9E
:1009E8002C2A2CBE00EF05F02C5008E12B28D8A0AB
:1009F80000EF05F002EF05F00CEF05F0000E276E92
:100A0800000E286E800E296E7F0E2A6E3AEF05F0D2
:100A18002CBE19EF05F02C5006E12B04D8B017EFC7
:100A280005F019EF05F025EF05F0000E276E000E12
:100A3800286E000E296E000E2A6E000E206E3AEF08
:100A480005F02BC026F0FF0E2716FF0E28167F0E86
:100A58002916000E2A1626A034EF05F036EF05F009
:100A680037EF05F0298ED89026302A6E20502A12AA
:100A780027C014F028C015F029C016F02AC017F0B6
:100A880012000E6E0E50D8B44CEF05F04EEF05F084
:100A980070EF05F009BE55EF05F053EF05F070EF64
:100AA80005F006C00AF007C00BF008C00CF009C03A
:100AB8000DF00A1E0B1E0C1E0D1E0A2A000E0B221C
:100AC8000C220D220AC010F00BC011F00CC012F05D
:100AD8000DC013F078EF05F006C010F007C011F054
:100AE80008C012F009C013F00650071008100910CA
:100AF800D8A481EF05F083EF05F08DEF05F0000E27
:100B0800066E000E076E000E086E000E096E1EEFD0
:100B180006F0960E0F6E97EF05F00F2AD890133255
:100B2800123211321032000E10140A6E000E111417
:100B38000B6E000E12140C6EFE0E13140D6E0A507E
:100B48000B100C100D10D8A4ACEF05F0AEEF05F0AB
:100B580091EF05F0BCEF05F00F2A010E1026000EEC
:100B6800112212221322D89013321232113210326B
:100B7800000E10140A6E000E11140B6E000E1214E3
:100B88000C6EFF0E13140D6E0A500B100C100D1086
:100B9800D8A4D1EF05F0D3EF05F0B0EF05F0DBEF07
:100BA80005F00F06D890103611361236133612BEDD
:100BB800E0EF05F0E2EF05F0EAEF05F0020E0F6056
:100BC800E8EF05F0EAEF05F0D5EF05F00FB0EFEF2D
:100BD80005F0F1EF05F0F2EF05F0129ED8900F3214
:100BE8000FC00AF00B6A0C6A0D6A0AC00DF00C6A95
:100BF8000B6A0A6A0A5010120B5011120C5012128A
:100C08000D5013120E50D8B40CEF06F00EEF06F08C
:100C180016EF06F009BE15EF06F013EF06F016EF13
:100C280006F0138E10C006F011C007F012C008F0CD
:100C380013C009F012001BEC09F036EC09F088EC3F
:100C480008F03EEC09F04FC0B0F050C0B1F051C010
:100C5800B2F0000E7DEC07F0B40E396E000E3A6E5D
:100C68004FEC00F00001BA6FBA51D8A43EEF06F07D
:100C780040EF06F042EF06F0770EB06FBA05D8A441
:100C880048EF06F04AEF06F04CEF06F0720EB06F30
:100C9800020EBA19D8A453EF06F055EF06F057EF35
:100CA80006F0620EB06F030EBA19D8A45EEF06F014
:100CB80060EF06F062EF06F0670EB06F040EBA1927
:100CC800D8A469EF06F06BEF06F06DEF06F0700E32
:100CD800B06F050EBA19D8A474EF06F076EF06F0D7
:100CE80078EF06F0790EB06F060EBA19D8A47FEF28
:100CF80006F081EF06F083EF06F06F0EB06F070E77
:100D0800BA19D8A48AEF06F08CEF06F08EEF06F039
:100D18006C0EB06F080EBA19D8A495EF06F097EFCD
:100D280006F099EF06F0780EB06FB00E076E000E61
:100D3800086E6CEC08F0000E7DEC07F0000E000168
:100D4800B36F4A0E466E0E0E456E190EE82EFED78C
:100D5800452EFCD7462EFAD700F00001B32B020E21
:100D6800B365B9EF06F0BBEF06F0A5EF06F02DEF7F
:100D780006F04DEF00F0000E2D14356E000E2E1407
:100D8800366E800E2F14376E7F0E3014386E355045
:100D9800361037103810D8A4D4EF06F0D6EF06F086
:100DA800DEEF06F0000E2D6E000E2E6E000E2F6E7A
:100DB800000E306E000E3114356E000E3214366E91
:100DC800800E3314376E7F0E3414386E355036105B
:100DD80037103810D8A4F3EF06F0F5EF06F0FDEF62
:100DE80006F0000E316E000E326E000E336E000EED
:100DF800346E30AE02EF07F004EF07F00DEF07F0A6
:100E08002D6C2E1ED8B02E2A2F1ED8B02F2A800E59
:100E1800305634AE12EF07F014EF07F01DEF07F06D
:100E2800316C321ED8B0322A331ED8B0332A800E25
:100E38003456000E2D1A000E2E1A000E2F1A800E90
:100E4800301A000E311A000E321A000E331A800EB4
:100E5800341A31502D5C32502E5833502F5834509C
:100E68003058D8B03AEF07F03CEF07F03FEF07F003
:100E7800D89040EF07F0D880120011507DEC07F0B1
:100E88004A0E166E0E0E156E190EE82EFED7152E8A
:100E9800FCD7162EFAD700F011041210D8A457EF79
:100EA80007F059EF07F05AEF07F07E8EADEC07F028
:100EB80013C0D9FF14C0DAFF0AC0DEFF0BC0DDFF84
:100EC800FDEC07F020EE04F01350D9261450DA2276
:100ED8000AC0DEFF0BC0DDFFD5EC07F020EE02F004
:100EE8001350D9261450DA220AC0DEFF0BC0DDFFEA
:100EF8001200066E0650D8A484EF07F086EF07F0BC
:100F080089EF07F07F827E8E79880604D8A48FEF58
:100F180007F091EF07F094EF07F07F827E9E7998B3
:100F2800020E0618D8A49BEF07F09DEF07F0A0EF7C
:100F380007F07F927E8E7998030E0618D8A4A7EF43
:100F480007F0A9EF07F0ACEF07F07F927E9E798853
:100F5800120055EC09F0520E45EC09F0B60E45ECBE
:100F680009F04BEC09F0530E45EC09F0010E4BEC7F
:100F780008F00C6E0C500F6E106A000E4BEC08F067
:100F88000C6E0C500E6E0D6A0F500D100F6E105037
:100F98000E10106E50EC09F00FC00AF010C00BF0E4
:100FA800120055EC09F0520E45EC09F0B80E45EC6C
:100FB80009F04BEC09F0530E45EC09F0010E4BEC2F
:100FC80008F00C6E0C500F6E106A000E4BEC08F017
:100FD8000C6E0C500E6E0D6A0F500D100F6E1050E7
:100FE8000E10106E50EC09F00FC00AF010C00BF094
:100FF800120055EC09F0520E45EC09F0BA0E45EC1A
:1010080009F04BEC09F0530E45EC09F0010E4BECDE
:1010180008F00C6E0C500F6E106A000E4BEC08F0C6
:101028000C6E0C500E6E0D6A0F500D100F6E105096
:101038000E10106E50EC09F00FC00AF010C00BF043
:101048001200B40EF66E120EF76E000EF86E09005E
:10105800F5CF4FF00900F5CF50F00900F5CF51F06A
:1010680001EE00F0640EEE6AE806FDE100EE60F0C5
:10107800500EEE6AE806FDE100EE47F0080EEE6A53
:10108800E806FDE15290529200011FEF06F0086E4B
:10109800F7EC08F00E01DA87F7EC08F0D5CE09F086
:1010A800F7EC08F00850D8B45CEF08F060EF08F0EF
:1010B800076A072A61EF08F0076A073A07460E0130
:1010C800DA510718DF0B0718DA6FDA8909501200AE
:1010D80077EF08F007C0D9FF08C0DAFFDF50CDEC82
:1010E80008F0074A082A07C0D9FF08C0DAFFDF500E
:1010F800D8A481EF08F083EF08F06EEF08F0010E36
:101108004D6E0E012D851200B8EC08F0010E086E28
:10111800000E0BEC09F03F0E0A6E550EE82EFED7B6
:101128000A2EFCD700F0030E086E000E0BEC09F037
:10113800D50E086E010E0BEC09F01200630E49641F
:10114800A8EF08F0AAEF08F0ACEF08F0000E496E1F
:10115800492A4904016E026A000E0124D96E010E63
:101168000220DA6EDF5012000E01D951F00B080987
:10117800D96FD98B9F0ED66F848A848CA79BA79D25
:101188001D0E1D6F1E0E1C6F1C0E6F6F1B0E706FD9
:101198001200066E630E4A64D4EF08F0D6EF08F02A
:1011A800D8EF08F0000E4A6E000E4A24D96EDA6AAB
:1011B800010EDA2206C0DFFF4A2A1200016E130E62
:1011C8004C64E9EF08F0EBEF08F0EDEF08F0000EE3
:1011D8004C6E9C0E4C24D96EDA6A000EDA2201C0DD
:1011E800DFFF4C2A12000E01D8B5FDEF08F0FFEF23
:1011F80008F0F7EF08F0DACE06F01F0E0616D8A4AE
:1012080008EF09F00AEF09F0F7EF08F01200096E8D
:1012180055EC09F0520E45EC09F00950800945ECEF
:1012280009F0085045EC09F050EC09F01200120ED4
:101238000E01626F110E156FE997E895330EE56F91
:10124800000EE66FE789E88BE78F120049504A18CD
:10125800D8A431EF09F034EF09F0010E35EF09F0A9
:10126800000E1200F28CF28A0E012D872D95298B23
:10127800F28E12008792869E81987F927E9E799840
:101288001200076EF7EC08F007C0D5FE1200F7EC65
:1012980008F00E01DA831200F7EC08F00E01DA8587
:0F12A8001200F7EC08F00E01DA811200300A0094
:020000040020DA
:10000000FF0FFF0FFF0FFF0FFF0FFF0FFF0FFF0F80
:020000040030CA
:0C000000AAFFFFFF9FFFFFFFFFFFFFFFB5
:00000001FF
